{
  "contractName": "Mortgage",
  "abi": [
    {
      "inputs": [],
      "payable": false,
      "stateMutability": "nonpayable",
      "type": "constructor"
    },
    {
      "anonymous": false,
      "inputs": [
        {
          "indexed": true,
          "internalType": "address",
          "name": "sender",
          "type": "address"
        },
        {
          "indexed": true,
          "internalType": "uint256",
          "name": "transactionId",
          "type": "uint256"
        }
      ],
      "name": "Confirmation",
      "type": "event"
    },
    {
      "anonymous": false,
      "inputs": [
        {
          "indexed": true,
          "internalType": "address",
          "name": "sender",
          "type": "address"
        },
        {
          "indexed": false,
          "internalType": "uint256",
          "name": "value",
          "type": "uint256"
        }
      ],
      "name": "Deposit",
      "type": "event"
    },
    {
      "anonymous": false,
      "inputs": [
        {
          "indexed": true,
          "internalType": "uint256",
          "name": "transactionId",
          "type": "uint256"
        }
      ],
      "name": "Execution",
      "type": "event"
    },
    {
      "anonymous": false,
      "inputs": [
        {
          "indexed": true,
          "internalType": "uint256",
          "name": "transactionId",
          "type": "uint256"
        }
      ],
      "name": "ExecutionFailure",
      "type": "event"
    },
    {
      "anonymous": false,
      "inputs": [
        {
          "indexed": false,
          "internalType": "uint256",
          "name": "transactionId",
          "type": "uint256"
        },
        {
          "indexed": true,
          "internalType": "address",
          "name": "sender",
          "type": "address"
        }
      ],
      "name": "Revocation",
      "type": "event"
    },
    {
      "anonymous": false,
      "inputs": [
        {
          "indexed": true,
          "internalType": "uint256",
          "name": "transactionId",
          "type": "uint256"
        }
      ],
      "name": "Submission",
      "type": "event"
    },
    {
      "payable": true,
      "stateMutability": "payable",
      "type": "fallback"
    },
    {
      "constant": true,
      "inputs": [],
      "name": "MortgageCount",
      "outputs": [
        {
          "internalType": "uint256",
          "name": "",
          "type": "uint256"
        }
      ],
      "payable": false,
      "stateMutability": "view",
      "type": "function"
    },
    {
      "constant": true,
      "inputs": [
        {
          "internalType": "uint256",
          "name": "",
          "type": "uint256"
        },
        {
          "internalType": "address",
          "name": "",
          "type": "address"
        }
      ],
      "name": "confirmations",
      "outputs": [
        {
          "internalType": "bool",
          "name": "",
          "type": "bool"
        }
      ],
      "payable": false,
      "stateMutability": "view",
      "type": "function"
    },
    {
      "constant": true,
      "inputs": [
        {
          "internalType": "uint256",
          "name": "",
          "type": "uint256"
        },
        {
          "internalType": "address",
          "name": "",
          "type": "address"
        }
      ],
      "name": "isParty",
      "outputs": [
        {
          "internalType": "bool",
          "name": "",
          "type": "bool"
        }
      ],
      "payable": false,
      "stateMutability": "view",
      "type": "function"
    },
    {
      "constant": true,
      "inputs": [
        {
          "internalType": "uint256",
          "name": "",
          "type": "uint256"
        }
      ],
      "name": "mortgages",
      "outputs": [
        {
          "internalType": "address",
          "name": "bank",
          "type": "address"
        },
        {
          "internalType": "address",
          "name": "beneficiary",
          "type": "address"
        },
        {
          "internalType": "uint256",
          "name": "required",
          "type": "uint256"
        },
        {
          "internalType": "address payable",
          "name": "pin_owner",
          "type": "address"
        },
        {
          "internalType": "uint256",
          "name": "pin",
          "type": "uint256"
        },
        {
          "internalType": "uint256",
          "name": "amount",
          "type": "uint256"
        },
        {
          "internalType": "uint256",
          "name": "rates",
          "type": "uint256"
        },
        {
          "internalType": "uint256",
          "name": "length",
          "type": "uint256"
        },
        {
          "internalType": "bool",
          "name": "executed",
          "type": "bool"
        }
      ],
      "payable": false,
      "stateMutability": "view",
      "type": "function"
    },
    {
      "constant": true,
      "inputs": [
        {
          "internalType": "uint256",
          "name": "",
          "type": "uint256"
        },
        {
          "internalType": "uint256",
          "name": "",
          "type": "uint256"
        }
      ],
      "name": "parties",
      "outputs": [
        {
          "internalType": "address",
          "name": "",
          "type": "address"
        }
      ],
      "payable": false,
      "stateMutability": "view",
      "type": "function"
    },
    {
      "constant": true,
      "inputs": [],
      "name": "getDeposit",
      "outputs": [
        {
          "internalType": "uint256",
          "name": "",
          "type": "uint256"
        }
      ],
      "payable": false,
      "stateMutability": "view",
      "type": "function"
    },
    {
      "constant": false,
      "inputs": [
        {
          "internalType": "uint256",
          "name": "transactionId",
          "type": "uint256"
        }
      ],
      "name": "withdraw",
      "outputs": [],
      "payable": false,
      "stateMutability": "nonpayable",
      "type": "function"
    },
    {
      "constant": false,
      "inputs": [
        {
          "internalType": "address",
          "name": "_bank",
          "type": "address"
        },
        {
          "internalType": "address",
          "name": "_beneficiary",
          "type": "address"
        },
        {
          "internalType": "address payable",
          "name": "_pin_owner",
          "type": "address"
        },
        {
          "internalType": "uint256",
          "name": "_pin",
          "type": "uint256"
        },
        {
          "internalType": "uint256",
          "name": "_amount",
          "type": "uint256"
        },
        {
          "internalType": "uint256",
          "name": "_rates",
          "type": "uint256"
        },
        {
          "internalType": "uint256",
          "name": "_length",
          "type": "uint256"
        },
        {
          "internalType": "address",
          "name": "addr",
          "type": "address"
        }
      ],
      "name": "submitTransaction",
      "outputs": [
        {
          "internalType": "uint256",
          "name": "transactionId",
          "type": "uint256"
        }
      ],
      "payable": true,
      "stateMutability": "payable",
      "type": "function"
    },
    {
      "constant": true,
      "inputs": [
        {
          "internalType": "uint256",
          "name": "transactionId",
          "type": "uint256"
        }
      ],
      "name": "isExecuted",
      "outputs": [
        {
          "internalType": "bool",
          "name": "",
          "type": "bool"
        }
      ],
      "payable": false,
      "stateMutability": "view",
      "type": "function"
    },
    {
      "constant": false,
      "inputs": [
        {
          "internalType": "uint256",
          "name": "transactionId",
          "type": "uint256"
        },
        {
          "internalType": "address",
          "name": "addr",
          "type": "address"
        }
      ],
      "name": "confirmTransaction",
      "outputs": [
        {
          "internalType": "bool",
          "name": "",
          "type": "bool"
        }
      ],
      "payable": false,
      "stateMutability": "nonpayable",
      "type": "function"
    },
    {
      "constant": false,
      "inputs": [
        {
          "internalType": "uint256",
          "name": "transactionId",
          "type": "uint256"
        }
      ],
      "name": "revokeConfirmation",
      "outputs": [],
      "payable": false,
      "stateMutability": "nonpayable",
      "type": "function"
    },
    {
      "constant": false,
      "inputs": [
        {
          "internalType": "uint256",
          "name": "transactionId",
          "type": "uint256"
        },
        {
          "internalType": "address",
          "name": "addr",
          "type": "address"
        }
      ],
      "name": "executeTransaction",
      "outputs": [
        {
          "internalType": "bool",
          "name": "",
          "type": "bool"
        }
      ],
      "payable": true,
      "stateMutability": "payable",
      "type": "function"
    }
  ],
  "bytecode": "0x6080604052670de0b6b3a7640000600155600060025534801561002157600080fd5b50611831806100316000396000f3fe6080604052600436106100a75760003560e01c806375861f271161006457806375861f271461034857806376a6bf5214610457578063b4f28dd1146104aa578063c399ec88146104d5578063c7e436a614610500578063d8febd71146105e1576100a7565b806320ea8d861461010157806329ba87801461013c5780632e1a7d4d146101a25780633411c81c146101dd57806352554a781461025057806360f247b5146102d5575b60003411156100ff573373ffffffffffffffffffffffffffffffffffffffff167fe1fffcc4923d04b559f4d29a8bfc6cda04eb5b0d3c460751c2402c5c5cc9109c346040518082815260200191505060405180910390a25b005b34801561010d57600080fd5b5061013a6004803603602081101561012457600080fd5b8101908080359060200190929190505050610654565b005b6101886004803603604081101561015257600080fd5b8101908080359060200190929190803573ffffffffffffffffffffffffffffffffffffffff1690602001909291905050506107ea565b604051808215151515815260200191505060405180910390f35b3480156101ae57600080fd5b506101db600480360360208110156101c557600080fd5b81019080803590602001909291905050506109ad565b005b3480156101e957600080fd5b506102366004803603604081101561020057600080fd5b8101908080359060200190929190803573ffffffffffffffffffffffffffffffffffffffff169060200190929190505050610c12565b604051808215151515815260200191505060405180910390f35b34801561025c57600080fd5b506102936004803603604081101561027357600080fd5b810190808035906020019092919080359060200190929190505050610c41565b604051808273ffffffffffffffffffffffffffffffffffffffff1673ffffffffffffffffffffffffffffffffffffffff16815260200191505060405180910390f35b3480156102e157600080fd5b5061032e600480360360408110156102f857600080fd5b8101908080359060200190929190803573ffffffffffffffffffffffffffffffffffffffff169060200190929190505050610c8c565b604051808215151515815260200191505060405180910390f35b34801561035457600080fd5b506103816004803603602081101561036b57600080fd5b8101908080359060200190929190505050610e27565b604051808a73ffffffffffffffffffffffffffffffffffffffff1673ffffffffffffffffffffffffffffffffffffffff1681526020018973ffffffffffffffffffffffffffffffffffffffff1673ffffffffffffffffffffffffffffffffffffffff1681526020018881526020018773ffffffffffffffffffffffffffffffffffffffff1673ffffffffffffffffffffffffffffffffffffffff16815260200186815260200185815260200184815260200183815260200182151515158152602001995050505050505050505060405180910390f35b34801561046357600080fd5b506104906004803603602081101561047a57600080fd5b8101908080359060200190929190505050610ee2565b604051808215151515815260200191505060405180910390f35b3480156104b657600080fd5b506104bf610f0f565b6040518082815260200191505060405180910390f35b3480156104e157600080fd5b506104ea610f15565b6040518082815260200191505060405180910390f35b6105cb600480360361010081101561051757600080fd5b81019080803573ffffffffffffffffffffffffffffffffffffffff169060200190929190803573ffffffffffffffffffffffffffffffffffffffff169060200190929190803573ffffffffffffffffffffffffffffffffffffffff16906020019092919080359060200190929190803590602001909291908035906020019092919080359060200190929190803573ffffffffffffffffffffffffffffffffffffffff169060200190929190505050610f34565b6040518082815260200191505060405180910390f35b3480156105ed57600080fd5b5061063a6004803603604081101561060457600080fd5b8101908080359060200190929190803573ffffffffffffffffffffffffffffffffffffffff169060200190929190505050611454565b604051808215151515815260200191505060405180910390f35b600115156006600083815260200190815260200160002060003373ffffffffffffffffffffffffffffffffffffffff1673ffffffffffffffffffffffffffffffffffffffff16815260200190815260200160002060009054906101000a900460ff161515146106c257600080fd5b600115156004600083815260200190815260200160002060003373ffffffffffffffffffffffffffffffffffffffff1673ffffffffffffffffffffffffffffffffffffffff16815260200190815260200160002060009054906101000a900460ff1615151461073057600080fd5b60006006600083815260200190815260200160002060003373ffffffffffffffffffffffffffffffffffffffff1673ffffffffffffffffffffffffffffffffffffffff16815260200190815260200160002060006101000a81548160ff0219169083151502179055503373ffffffffffffffffffffffffffffffffffffffff167f01f63c1b9d3957c18de0c44c6275215a4ad8986480fd414a049af3c3643ec9b3826040518082815260200191505060405180910390a250565b60006107f583611483565b156109795760016005600085815260200190815260200160002060080160006101000a81548160ff021916908315150217905550827f33e13ecb54c3076d8e8bb8c2881800a4d972b792045ffae98fdf46df365fed7560405160405180910390a261085f836109ad565b60008290508073ffffffffffffffffffffffffffffffffffffffff16632307636f6005600087815260200190815260200160002060010160009054906101000a900473ffffffffffffffffffffffffffffffffffffffff1660056000888152602001908152602001600020600401546040518363ffffffff1660e01b8152600401808373ffffffffffffffffffffffffffffffffffffffff1673ffffffffffffffffffffffffffffffffffffffff16815260200182815260200192505050602060405180830381600087803b15801561093757600080fd5b505af115801561094b573d6000803e3d6000fd5b505050506040513d602081101561096157600080fd5b810190808051906020019092919050505050506109a7565b827f526441bb6c1aba3c9a4a6ca1d6545da9c2333c8c48343ef398eb858d72b7923660405160405180910390a25b92915050565b6004600082815260200190815260200160002060003373ffffffffffffffffffffffffffffffffffffffff1673ffffffffffffffffffffffffffffffffffffffff16815260200190815260200160002060009054906101000a900460ff16610a7d576040517f08c379a000000000000000000000000000000000000000000000000000000000815260040180806020018281038252600a8152602001807f4f6e6c792070617274790000000000000000000000000000000000000000000081525060200191505060405180910390fd5b6000600760006005600085815260200190815260200160002060030160009054906101000a900473ffffffffffffffffffffffffffffffffffffffff1673ffffffffffffffffffffffffffffffffffffffff1673ffffffffffffffffffffffffffffffffffffffff168152602001908152602001600020541415610b0057600080fd5b6000600760006005600085815260200190815260200160002060030160009054906101000a900473ffffffffffffffffffffffffffffffffffffffff1673ffffffffffffffffffffffffffffffffffffffff1673ffffffffffffffffffffffffffffffffffffffff168152602001908152602001600020819055506005600082815260200190815260200160002060030160009054906101000a900473ffffffffffffffffffffffffffffffffffffffff1673ffffffffffffffffffffffffffffffffffffffff166108fc3073ffffffffffffffffffffffffffffffffffffffff16319081150290604051600060405180830381858888f19350505050158015610c0e573d6000803e3d6000fd5b5050565b60066020528160005260406000206020528060005260406000206000915091509054906101000a900460ff1681565b60036020528160005260406000208181548110610c5a57fe5b906000526020600020016000915091509054906101000a900473ffffffffffffffffffffffffffffffffffffffff1681565b60008015156006600085815260200190815260200160002060003373ffffffffffffffffffffffffffffffffffffffff1673ffffffffffffffffffffffffffffffffffffffff16815260200190815260200160002060009054906101000a900460ff16151514610cfb57600080fd5b600115156004600085815260200190815260200160002060003373ffffffffffffffffffffffffffffffffffffffff1673ffffffffffffffffffffffffffffffffffffffff16815260200190815260200160002060009054906101000a900460ff16151514610d6957600080fd5b60016006600085815260200190815260200160002060003373ffffffffffffffffffffffffffffffffffffffff1673ffffffffffffffffffffffffffffffffffffffff16815260200190815260200160002060006101000a81548160ff021916908315150217905550823373ffffffffffffffffffffffffffffffffffffffff167f4a504a94899432a9846e1aa406dceb1bcfd538bb839071d49d1e5e23f5be30ef60405160405180910390a3610e2083836107ea565b5092915050565b60056020528060005260406000206000915090508060000160009054906101000a900473ffffffffffffffffffffffffffffffffffffffff16908060010160009054906101000a900473ffffffffffffffffffffffffffffffffffffffff16908060020154908060030160009054906101000a900473ffffffffffffffffffffffffffffffffffffffff16908060040154908060050154908060060154908060070154908060080160009054906101000a900460ff16905089565b60006005600083815260200190815260200160002060080160009054906101000a900460ff169050919050565b60025481565b60003073ffffffffffffffffffffffffffffffffffffffff1631905090565b6000610f3e611727565b6040518061012001604052808b73ffffffffffffffffffffffffffffffffffffffff1681526020018a73ffffffffffffffffffffffffffffffffffffffff168152602001600381526020018973ffffffffffffffffffffffffffffffffffffffff168152602001888152602001878152602001868152602001858152602001600015158152509050610fcf8161159e565b9150600360008381526020019081526020016000208a90806001815401808255809150509060018203906000526020600020016000909192909190916101000a81548173ffffffffffffffffffffffffffffffffffffffff021916908373ffffffffffffffffffffffffffffffffffffffff16021790555050600360008381526020019081526020016000208990806001815401808255809150509060018203906000526020600020016000909192909190916101000a81548173ffffffffffffffffffffffffffffffffffffffff021916908373ffffffffffffffffffffffffffffffffffffffff16021790555050600360008381526020019081526020016000208890806001815401808255809150509060018203906000526020600020016000909192909190916101000a81548173ffffffffffffffffffffffffffffffffffffffff021916908373ffffffffffffffffffffffffffffffffffffffff1602179055505060008090505b60036000848152602001908152602001600020805490508110156113495760046000848152602001908152602001600020600060036000868152602001908152602001600020838154811061118d57fe5b9060005260206000200160009054906101000a900473ffffffffffffffffffffffffffffffffffffffff1673ffffffffffffffffffffffffffffffffffffffff1673ffffffffffffffffffffffffffffffffffffffff16815260200190815260200160002060009054906101000a900460ff161580156112825750600073ffffffffffffffffffffffffffffffffffffffff1660036000858152602001908152602001600020828154811061123e57fe5b9060005260206000200160009054906101000a900473ffffffffffffffffffffffffffffffffffffffff1673ffffffffffffffffffffffffffffffffffffffff1614155b61128b57600080fd5b60016004600085815260200190815260200160002060006003600087815260200190815260200160002084815481106112c057fe5b9060005260206000200160009054906101000a900473ffffffffffffffffffffffffffffffffffffffff1673ffffffffffffffffffffffffffffffffffffffff1673ffffffffffffffffffffffffffffffffffffffff16815260200190815260200160002060006101000a81548160ff021916908315150217905550808060010191505061113c565b506001548602600760008a73ffffffffffffffffffffffffffffffffffffffff1673ffffffffffffffffffffffffffffffffffffffff16815260200190815260200160002081905550600154860234146113ee576040517f08c379a00000000000000000000000000000000000000000000000000000000081526004018080602001828103825260458152602001806117b86045913960600191505060405180910390fd5b3073ffffffffffffffffffffffffffffffffffffffff166108fc60015488029081150290604051600060405180830381858888f19350505050158015611438573d6000803e3d6000fd5b506114438284610c8c565b508191505098975050505050505050565b60046020528160005260406000206020528060005260406000206000915091509054906101000a900460ff1681565b6000806000905060008090505b6003600085815260200190815260200160002080549050811015611596576006600085815260200190815260200160002060006003600087815260200190815260200160002083815481106114e157fe5b9060005260206000200160009054906101000a900473ffffffffffffffffffffffffffffffffffffffff1673ffffffffffffffffffffffffffffffffffffffff1673ffffffffffffffffffffffffffffffffffffffff16815260200190815260200160002060009054906101000a900460ff1615611560576001820191505b600560008581526020019081526020016000206002015482141561158957600192505050611599565b8080600101915050611490565b50505b919050565b60006002549050816005600083815260200190815260200160002060008201518160000160006101000a81548173ffffffffffffffffffffffffffffffffffffffff021916908373ffffffffffffffffffffffffffffffffffffffff16021790555060208201518160010160006101000a81548173ffffffffffffffffffffffffffffffffffffffff021916908373ffffffffffffffffffffffffffffffffffffffff1602179055506040820151816002015560608201518160030160006101000a81548173ffffffffffffffffffffffffffffffffffffffff021916908373ffffffffffffffffffffffffffffffffffffffff1602179055506080820151816004015560a0820151816005015560c0820151816006015560e082015181600701556101008201518160080160006101000a81548160ff0219169083151502179055509050506001600260008282540192505081905550807fc0ba8fe4b176c1714197d43b9cc6bcf797a4a7461c5fe8d0ef6e184ae7601e5160405160405180910390a2919050565b604051806101200160405280600073ffffffffffffffffffffffffffffffffffffffff168152602001600073ffffffffffffffffffffffffffffffffffffffff16815260200160008152602001600073ffffffffffffffffffffffffffffffffffffffff16815260200160008152602001600081526020016000815260200160008152602001600015158152509056fe5468652073656e6465722068617320746f206465706f73697420746865206578616374207072696365206f6620746865206c6f616e20696e2074686520636f6e7472616374a265627a7a7231582002150178d8d427c00c33191125b5cdd948cd14ddf3d3f589817a913b734147e964736f6c634300050c0032",
  "source": "pragma solidity ^0.5.0;\n\ncontract Registry{\n    function updatePropertyFromMortgage(address ownerAddress, uint pin) public returns(bool success);\n}\n\ncontract Mortgage {\n    address payable owner;\n    uint ETHER=(10**18);\n\n    struct BankContract{\n        address bank;\n        address beneficiary;\n        //mapping (address => bool) isParty;\n        uint required;\n        //address[] parties;\n        address payable pin_owner;\n        uint pin;\n        uint amount;\n        uint rates;\n        uint length;\n        bool executed;\n    }\n\n    uint public MortgageCount=0;\n    mapping (uint => address[]) public parties;\n    mapping (uint => mapping(address => bool)) public isParty;\n    mapping (uint => BankContract) public mortgages;\n    mapping (uint => mapping (address => bool)) public confirmations;\n    mapping (address => uint) pendingWithdrawals;\n\n    event Submission(uint indexed transactionId);\n    event Deposit(address indexed sender, uint value);\n    event Confirmation(address indexed sender, uint indexed transactionId);\n    event Execution(uint indexed transactionId);\n    event Revocation(uint transactionId,address indexed sender);\n    event ExecutionFailure(uint indexed transactionId);\n\n\n    modifier validRequirement(uint ownerCount, uint _required) {\n        if (   _required > ownerCount || _required == 0 || ownerCount == 0)\n            revert();\n        _;\n    } \n \n\n    /// @dev Fallback function allows to deposit ether.\n    function()\n        external\n        payable\n    {\n        if (msg.value > 0) {\n            emit Deposit(msg.sender, msg.value);\n    }\n    }\n\n\n    /*\n     * Public functions\n     */\n    /// @dev Contract constructor sets initial owners and required number of confirmations.\n    constructor() public {\n    }\n\n    function getDeposit() public view returns (uint256){\n        return address(this).balance;\n    }\n\n    function withdraw(uint transactionId) public{\n        require(isParty[transactionId][msg.sender],\"Only party\");\n        // against re-entrancy attack \n        require(pendingWithdrawals[mortgages[transactionId].pin_owner]!=0);\n        pendingWithdrawals[mortgages[transactionId].pin_owner]=0;\n        mortgages[transactionId].pin_owner.transfer(address(this).balance);\n    }\n\n\n    /// @dev Allows an owner to submit and confirm a transaction.\n    /// @return Returns transaction ID.\n    function submitTransaction(address _bank,address _beneficiary,address payable _pin_owner, uint _pin, uint _amount,uint _rates, uint _length,address addr) payable public returns (uint transactionId) {\n\n        BankContract memory trx = BankContract(_bank,_beneficiary,3,\n        _pin_owner,_pin,_amount,_rates,_length,false);\n        transactionId = addTransaction(trx);\n        parties[transactionId].push(_bank);\n        parties[transactionId].push(_beneficiary);\n        parties[transactionId].push(_pin_owner);\n        for (uint i=0; i<parties[transactionId].length; i++) {\n            require(!isParty[transactionId][parties[transactionId][i]] && parties[transactionId][i] != address(0));\n            isParty[transactionId][parties[transactionId][i]] = true;\n        }\n        pendingWithdrawals[_pin_owner]=_amount*ETHER;\n        require(msg.value == _amount*ETHER,\"The sender has to deposit the exact price of the loan in the contract\");\n        address(this).transfer(_amount*ETHER);\n        confirmTransaction(transactionId,addr);\n        return transactionId;\n    }\n\n        /// @dev Adds a new transaction to the transaction mapping, if transaction does not exist yet.\n    /// @return Returns transaction ID.\n    function addTransaction(BankContract memory txx) internal returns (uint transactionId) {\n        transactionId = MortgageCount;\n        mortgages[transactionId] = txx;\n        MortgageCount += 1;\n        emit Submission(transactionId);\n    }\n\n    function isExecuted(uint transactionId)public view returns (bool){\n        return mortgages[transactionId].executed;\n    }\n\n    /// @dev Allows an owner to confirm a transaction.\n    /// @param transactionId Transaction ID.\n    function confirmTransaction(uint transactionId,address addr) public returns (bool) {\n        require(confirmations[transactionId][msg.sender] == false);\n        require(isParty[transactionId][msg.sender]==true);\n        confirmations[transactionId][msg.sender] = true;\n        emit Confirmation(msg.sender, transactionId);\n        executeTransaction(transactionId,addr);\n    }\n\n    /// @dev Allows an owner to revoke a confirmation for a transaction.\n    /// @param transactionId Transaction ID.\n    function revokeConfirmation(uint transactionId) public {\n        require(confirmations[transactionId][msg.sender] == true);\n        require(isParty[transactionId][msg.sender]==true);\n        confirmations[transactionId][msg.sender] = false;\n        emit Revocation(transactionId,msg.sender);\n    }\n\n    /// @dev Allows anyone to execute a confirmed transaction.\n    /// @param transactionId Transaction ID.\n    function executeTransaction(uint transactionId,address addr) public payable returns (bool) {\n        if (isConfirmed(transactionId)) {\n            //pin_owner.transfer(mortgages[transactionId].amount);\n            mortgages[transactionId].executed=true;\n            emit Execution(transactionId);\n            withdraw(transactionId);\n            Registry r = Registry(addr);\n            r.updatePropertyFromMortgage(mortgages[transactionId].beneficiary,mortgages[transactionId].pin);\n        }else{\n            emit ExecutionFailure(transactionId);\n        }\n    }\n\n        /*\n         * (Possible) Helper Functions\n         */\n    /// @dev Returns the confirmation status of a transaction.\n    /// @param transactionId Transaction ID.\n    /// @return Confirmation status.\n    function isConfirmed(uint transactionId) internal view returns (bool) {\n        uint count = 0;\n        for (uint i=0; i<parties[transactionId].length; i++) {\n            if (confirmations[transactionId][parties[transactionId][i]])\n                count += 1;\n            if (count == mortgages[transactionId].required)\n                return true;\n        }\n    }\n/*\n    function InitializeContract(address _bank, address _client, address payable _pin_owner, uint _required)public{\n        address[] _parties=[];\n        mapping (address => bool) public _isParty;\n        parties.push(_bank);\n        parties.push(_client);\n        parties.push(_pin_owner);\n        for (uint i=0; i<parties.length; i++) {\n            require(!isParty[parties[i]] && parties[i] != address(0));\n            isParty[parties[i]] = true;\n        }\n        pin_owner =_pin_owner;\n        required = _required;\n        DataContract memory dc = DataContract({\n            isParty: _isParty,\n            parties: _parties,\n            pin_owner: _pin_owner,\n            transactionid:_tid,\n        })\n    }\n*/\n\n\n\n\n}",
  "sourcePath": "/home/alexlo/NIST/solidity-project/landreg/contracts/Mortgage.sol",
  "compiler": {
    "name": "solc",
    "version": "0.5.12+commit.7709ece9.Emscripten.clang"
  },
  "schemaVersion": "3.0.19",
  "updatedAt": "2020-01-29T18:03:47.401Z",
  "networkType": "ethereum",
  "devdoc": {
    "methods": {
      "confirmTransaction(uint256,address)": {
        "details": "Allows an owner to confirm a transaction.",
        "params": {
          "transactionId": "Transaction ID."
        }
      },
      "constructor": {
        "details": "Contract constructor sets initial owners and required number of confirmations."
      },
      "executeTransaction(uint256,address)": {
        "details": "Allows anyone to execute a confirmed transaction.",
        "params": {
          "transactionId": "Transaction ID."
        }
      },
      "revokeConfirmation(uint256)": {
        "details": "Allows an owner to revoke a confirmation for a transaction.",
        "params": {
          "transactionId": "Transaction ID."
        }
      },
      "submitTransaction(address,address,address,uint256,uint256,uint256,uint256,address)": {
        "details": "Allows an owner to submit and confirm a transaction.",
        "return": "Returns transaction ID."
      }
    }
  },
  "userdoc": {
    "methods": {}
  }
}