{
  "contractName": "Mortgage",
  "abi": [
    {
      "inputs": [],
      "payable": false,
      "stateMutability": "nonpayable",
      "type": "constructor"
    },
    {
      "anonymous": false,
      "inputs": [
        {
          "indexed": true,
          "internalType": "address",
          "name": "sender",
          "type": "address"
        },
        {
          "indexed": true,
          "internalType": "uint256",
          "name": "transactionId",
          "type": "uint256"
        }
      ],
      "name": "Confirmation",
      "type": "event"
    },
    {
      "anonymous": false,
      "inputs": [
        {
          "indexed": true,
          "internalType": "address",
          "name": "sender",
          "type": "address"
        },
        {
          "indexed": false,
          "internalType": "uint256",
          "name": "value",
          "type": "uint256"
        }
      ],
      "name": "Deposit",
      "type": "event"
    },
    {
      "anonymous": false,
      "inputs": [
        {
          "indexed": true,
          "internalType": "uint256",
          "name": "transactionId",
          "type": "uint256"
        }
      ],
      "name": "Execution",
      "type": "event"
    },
    {
      "anonymous": false,
      "inputs": [
        {
          "indexed": true,
          "internalType": "uint256",
          "name": "transactionId",
          "type": "uint256"
        }
      ],
      "name": "ExecutionFailure",
      "type": "event"
    },
    {
      "anonymous": false,
      "inputs": [
        {
          "indexed": false,
          "internalType": "uint256",
          "name": "transactionId",
          "type": "uint256"
        },
        {
          "indexed": true,
          "internalType": "address",
          "name": "sender",
          "type": "address"
        }
      ],
      "name": "Revocation",
      "type": "event"
    },
    {
      "anonymous": false,
      "inputs": [
        {
          "indexed": true,
          "internalType": "uint256",
          "name": "transactionId",
          "type": "uint256"
        }
      ],
      "name": "Submission",
      "type": "event"
    },
    {
      "payable": true,
      "stateMutability": "payable",
      "type": "fallback"
    },
    {
      "constant": true,
      "inputs": [],
      "name": "MortgageCount",
      "outputs": [
        {
          "internalType": "uint256",
          "name": "",
          "type": "uint256"
        }
      ],
      "payable": false,
      "stateMutability": "view",
      "type": "function"
    },
    {
      "constant": true,
      "inputs": [
        {
          "internalType": "uint256",
          "name": "",
          "type": "uint256"
        },
        {
          "internalType": "address",
          "name": "",
          "type": "address"
        }
      ],
      "name": "confirmations",
      "outputs": [
        {
          "internalType": "bool",
          "name": "",
          "type": "bool"
        }
      ],
      "payable": false,
      "stateMutability": "view",
      "type": "function"
    },
    {
      "constant": true,
      "inputs": [
        {
          "internalType": "uint256",
          "name": "",
          "type": "uint256"
        },
        {
          "internalType": "address",
          "name": "",
          "type": "address"
        }
      ],
      "name": "isParty",
      "outputs": [
        {
          "internalType": "bool",
          "name": "",
          "type": "bool"
        }
      ],
      "payable": false,
      "stateMutability": "view",
      "type": "function"
    },
    {
      "constant": true,
      "inputs": [
        {
          "internalType": "uint256",
          "name": "",
          "type": "uint256"
        }
      ],
      "name": "mortgages",
      "outputs": [
        {
          "internalType": "address",
          "name": "bank",
          "type": "address"
        },
        {
          "internalType": "address",
          "name": "beneficiary",
          "type": "address"
        },
        {
          "internalType": "uint256",
          "name": "required",
          "type": "uint256"
        },
        {
          "internalType": "address payable",
          "name": "pin_owner",
          "type": "address"
        },
        {
          "internalType": "uint256",
          "name": "pin",
          "type": "uint256"
        },
        {
          "internalType": "uint256",
          "name": "amount",
          "type": "uint256"
        },
        {
          "internalType": "uint256",
          "name": "rates",
          "type": "uint256"
        },
        {
          "internalType": "uint256",
          "name": "length",
          "type": "uint256"
        },
        {
          "internalType": "bool",
          "name": "executed",
          "type": "bool"
        }
      ],
      "payable": false,
      "stateMutability": "view",
      "type": "function"
    },
    {
      "constant": true,
      "inputs": [
        {
          "internalType": "uint256",
          "name": "",
          "type": "uint256"
        },
        {
          "internalType": "uint256",
          "name": "",
          "type": "uint256"
        }
      ],
      "name": "parties",
      "outputs": [
        {
          "internalType": "address",
          "name": "",
          "type": "address"
        }
      ],
      "payable": false,
      "stateMutability": "view",
      "type": "function"
    },
    {
      "constant": true,
      "inputs": [],
      "name": "getDeposit",
      "outputs": [
        {
          "internalType": "uint256",
          "name": "",
          "type": "uint256"
        }
      ],
      "payable": false,
      "stateMutability": "view",
      "type": "function"
    },
    {
      "constant": false,
      "inputs": [
        {
          "internalType": "uint256",
          "name": "transactionId",
          "type": "uint256"
        }
      ],
      "name": "withdraw",
      "outputs": [],
      "payable": false,
      "stateMutability": "nonpayable",
      "type": "function"
    },
    {
      "constant": false,
      "inputs": [
        {
          "internalType": "address",
          "name": "_bank",
          "type": "address"
        },
        {
          "internalType": "address",
          "name": "_beneficiary",
          "type": "address"
        },
        {
          "internalType": "address payable",
          "name": "_pin_owner",
          "type": "address"
        },
        {
          "internalType": "uint256",
          "name": "_pin",
          "type": "uint256"
        },
        {
          "internalType": "uint256",
          "name": "_amount",
          "type": "uint256"
        },
        {
          "internalType": "uint256",
          "name": "_rates",
          "type": "uint256"
        },
        {
          "internalType": "uint256",
          "name": "_length",
          "type": "uint256"
        }
      ],
      "name": "submitTransaction",
      "outputs": [
        {
          "internalType": "uint256",
          "name": "transactionId",
          "type": "uint256"
        }
      ],
      "payable": true,
      "stateMutability": "payable",
      "type": "function"
    },
    {
      "constant": true,
      "inputs": [
        {
          "internalType": "uint256",
          "name": "transactionId",
          "type": "uint256"
        }
      ],
      "name": "isExecuted",
      "outputs": [
        {
          "internalType": "bool",
          "name": "",
          "type": "bool"
        }
      ],
      "payable": false,
      "stateMutability": "view",
      "type": "function"
    },
    {
      "constant": false,
      "inputs": [
        {
          "internalType": "uint256",
          "name": "transactionId",
          "type": "uint256"
        }
      ],
      "name": "confirmTransaction",
      "outputs": [
        {
          "internalType": "bool",
          "name": "",
          "type": "bool"
        }
      ],
      "payable": false,
      "stateMutability": "nonpayable",
      "type": "function"
    },
    {
      "constant": false,
      "inputs": [
        {
          "internalType": "uint256",
          "name": "transactionId",
          "type": "uint256"
        }
      ],
      "name": "revokeConfirmation",
      "outputs": [],
      "payable": false,
      "stateMutability": "nonpayable",
      "type": "function"
    },
    {
      "constant": false,
      "inputs": [
        {
          "internalType": "uint256",
          "name": "transactionId",
          "type": "uint256"
        }
      ],
      "name": "executeTransaction",
      "outputs": [
        {
          "internalType": "bool",
          "name": "",
          "type": "bool"
        }
      ],
      "payable": true,
      "stateMutability": "payable",
      "type": "function"
    }
  ],
  "bytecode": "0x6080604052670de0b6b3a7640000600155600060025534801561002157600080fd5b506116b6806100316000396000f3fe6080604052600436106100a75760003560e01c806381a9c2431161006457806381a9c243146103d1578063b4f28dd114610491578063c01a8c84146104bc578063c399ec881461050f578063d8febd711461053a578063ee22610b146105ad576100a7565b806320ea8d86146101015780632e1a7d4d1461013c5780633411c81c1461017757806352554a78146101ea57806375861f271461026f57806376a6bf521461037e575b60003411156100ff573373ffffffffffffffffffffffffffffffffffffffff167fe1fffcc4923d04b559f4d29a8bfc6cda04eb5b0d3c460751c2402c5c5cc9109c346040518082815260200191505060405180910390a25b005b34801561010d57600080fd5b5061013a6004803603602081101561012457600080fd5b81019080803590602001909291905050506105f3565b005b34801561014857600080fd5b506101756004803603602081101561015f57600080fd5b8101908080359060200190929190505050610789565b005b34801561018357600080fd5b506101d06004803603604081101561019a57600080fd5b8101908080359060200190929190803573ffffffffffffffffffffffffffffffffffffffff1690602001909291905050506109ee565b604051808215151515815260200191505060405180910390f35b3480156101f657600080fd5b5061022d6004803603604081101561020d57600080fd5b810190808035906020019092919080359060200190929190505050610a1d565b604051808273ffffffffffffffffffffffffffffffffffffffff1673ffffffffffffffffffffffffffffffffffffffff16815260200191505060405180910390f35b34801561027b57600080fd5b506102a86004803603602081101561029257600080fd5b8101908080359060200190929190505050610a68565b604051808a73ffffffffffffffffffffffffffffffffffffffff1673ffffffffffffffffffffffffffffffffffffffff1681526020018973ffffffffffffffffffffffffffffffffffffffff1673ffffffffffffffffffffffffffffffffffffffff1681526020018881526020018773ffffffffffffffffffffffffffffffffffffffff1673ffffffffffffffffffffffffffffffffffffffff16815260200186815260200185815260200184815260200183815260200182151515158152602001995050505050505050505060405180910390f35b34801561038a57600080fd5b506103b7600480360360208110156103a157600080fd5b8101908080359060200190929190505050610b23565b604051808215151515815260200191505060405180910390f35b61047b600480360360e08110156103e757600080fd5b81019080803573ffffffffffffffffffffffffffffffffffffffff169060200190929190803573ffffffffffffffffffffffffffffffffffffffff169060200190929190803573ffffffffffffffffffffffffffffffffffffffff16906020019092919080359060200190929190803590602001909291908035906020019092919080359060200190929190505050610b50565b6040518082815260200191505060405180910390f35b34801561049d57600080fd5b506104a661106e565b6040518082815260200191505060405180910390f35b3480156104c857600080fd5b506104f5600480360360208110156104df57600080fd5b8101908080359060200190929190505050611074565b604051808215151515815260200191505060405180910390f35b34801561051b57600080fd5b5061052461120d565b6040518082815260200191505060405180910390f35b34801561054657600080fd5b506105936004803603604081101561055d57600080fd5b8101908080359060200190929190803573ffffffffffffffffffffffffffffffffffffffff16906020019092919050505061122c565b604051808215151515815260200191505060405180910390f35b6105d9600480360360208110156105c357600080fd5b810190808035906020019092919050505061125b565b604051808215151515815260200191505060405180910390f35b600115156006600083815260200190815260200160002060003373ffffffffffffffffffffffffffffffffffffffff1673ffffffffffffffffffffffffffffffffffffffff16815260200190815260200160002060009054906101000a900460ff1615151461066157600080fd5b600115156004600083815260200190815260200160002060003373ffffffffffffffffffffffffffffffffffffffff1673ffffffffffffffffffffffffffffffffffffffff16815260200190815260200160002060009054906101000a900460ff161515146106cf57600080fd5b60006006600083815260200190815260200160002060003373ffffffffffffffffffffffffffffffffffffffff1673ffffffffffffffffffffffffffffffffffffffff16815260200190815260200160002060006101000a81548160ff0219169083151502179055503373ffffffffffffffffffffffffffffffffffffffff167f01f63c1b9d3957c18de0c44c6275215a4ad8986480fd414a049af3c3643ec9b3826040518082815260200191505060405180910390a250565b6004600082815260200190815260200160002060003373ffffffffffffffffffffffffffffffffffffffff1673ffffffffffffffffffffffffffffffffffffffff16815260200190815260200160002060009054906101000a900460ff16610859576040517f08c379a000000000000000000000000000000000000000000000000000000000815260040180806020018281038252600a8152602001807f4f6e6c792070617274790000000000000000000000000000000000000000000081525060200191505060405180910390fd5b6000600760006005600085815260200190815260200160002060030160009054906101000a900473ffffffffffffffffffffffffffffffffffffffff1673ffffffffffffffffffffffffffffffffffffffff1673ffffffffffffffffffffffffffffffffffffffff1681526020019081526020016000205414156108dc57600080fd5b6000600760006005600085815260200190815260200160002060030160009054906101000a900473ffffffffffffffffffffffffffffffffffffffff1673ffffffffffffffffffffffffffffffffffffffff1673ffffffffffffffffffffffffffffffffffffffff168152602001908152602001600020819055506005600082815260200190815260200160002060030160009054906101000a900473ffffffffffffffffffffffffffffffffffffffff1673ffffffffffffffffffffffffffffffffffffffff166108fc3073ffffffffffffffffffffffffffffffffffffffff16319081150290604051600060405180830381858888f193505050501580156109ea573d6000803e3d6000fd5b5050565b60066020528160005260406000206020528060005260406000206000915091509054906101000a900460ff1681565b60036020528160005260406000208181548110610a3657fe5b906000526020600020016000915091509054906101000a900473ffffffffffffffffffffffffffffffffffffffff1681565b60056020528060005260406000206000915090508060000160009054906101000a900473ffffffffffffffffffffffffffffffffffffffff16908060010160009054906101000a900473ffffffffffffffffffffffffffffffffffffffff16908060020154908060030160009054906101000a900473ffffffffffffffffffffffffffffffffffffffff16908060040154908060050154908060060154908060070154908060080160009054906101000a900460ff16905089565b60006005600083815260200190815260200160002060080160009054906101000a900460ff169050919050565b6000610b5a6115ac565b6040518061012001604052808a73ffffffffffffffffffffffffffffffffffffffff1681526020018973ffffffffffffffffffffffffffffffffffffffff168152602001600381526020018873ffffffffffffffffffffffffffffffffffffffff168152602001878152602001868152602001858152602001848152602001600015158152509050610beb81611308565b9150600360008381526020019081526020016000208990806001815401808255809150509060018203906000526020600020016000909192909190916101000a81548173ffffffffffffffffffffffffffffffffffffffff021916908373ffffffffffffffffffffffffffffffffffffffff16021790555050600360008381526020019081526020016000208890806001815401808255809150509060018203906000526020600020016000909192909190916101000a81548173ffffffffffffffffffffffffffffffffffffffff021916908373ffffffffffffffffffffffffffffffffffffffff16021790555050600360008381526020019081526020016000208790806001815401808255809150509060018203906000526020600020016000909192909190916101000a81548173ffffffffffffffffffffffffffffffffffffffff021916908373ffffffffffffffffffffffffffffffffffffffff1602179055505060008090505b6003600084815260200190815260200160002080549050811015610f6557600460008481526020019081526020016000206000600360008681526020019081526020016000208381548110610da957fe5b9060005260206000200160009054906101000a900473ffffffffffffffffffffffffffffffffffffffff1673ffffffffffffffffffffffffffffffffffffffff1673ffffffffffffffffffffffffffffffffffffffff16815260200190815260200160002060009054906101000a900460ff16158015610e9e5750600073ffffffffffffffffffffffffffffffffffffffff16600360008581526020019081526020016000208281548110610e5a57fe5b9060005260206000200160009054906101000a900473ffffffffffffffffffffffffffffffffffffffff1673ffffffffffffffffffffffffffffffffffffffff1614155b610ea757600080fd5b6001600460008581526020019081526020016000206000600360008781526020019081526020016000208481548110610edc57fe5b9060005260206000200160009054906101000a900473ffffffffffffffffffffffffffffffffffffffff1673ffffffffffffffffffffffffffffffffffffffff1673ffffffffffffffffffffffffffffffffffffffff16815260200190815260200160002060006101000a81548160ff0219169083151502179055508080600101915050610d58565b506001548502600760008973ffffffffffffffffffffffffffffffffffffffff1673ffffffffffffffffffffffffffffffffffffffff168152602001908152602001600020819055506001548502341461100a576040517f08c379a000000000000000000000000000000000000000000000000000000000815260040180806020018281038252604581526020018061163d6045913960600191505060405180910390fd5b3073ffffffffffffffffffffffffffffffffffffffff166108fc60015487029081150290604051600060405180830381858888f19350505050158015611054573d6000803e3d6000fd5b5061105e82611074565b5081915050979650505050505050565b60025481565b60008015156006600084815260200190815260200160002060003373ffffffffffffffffffffffffffffffffffffffff1673ffffffffffffffffffffffffffffffffffffffff16815260200190815260200160002060009054906101000a900460ff161515146110e357600080fd5b600115156004600084815260200190815260200160002060003373ffffffffffffffffffffffffffffffffffffffff1673ffffffffffffffffffffffffffffffffffffffff16815260200190815260200160002060009054906101000a900460ff1615151461115157600080fd5b60016006600084815260200190815260200160002060003373ffffffffffffffffffffffffffffffffffffffff1673ffffffffffffffffffffffffffffffffffffffff16815260200190815260200160002060006101000a81548160ff021916908315150217905550813373ffffffffffffffffffffffffffffffffffffffff167f4a504a94899432a9846e1aa406dceb1bcfd538bb839071d49d1e5e23f5be30ef60405160405180910390a36112078261125b565b50919050565b60003073ffffffffffffffffffffffffffffffffffffffff1631905090565b60046020528160005260406000206020528060005260406000206000915091509054906101000a900460ff1681565b600061126682611491565b156112d55760016005600084815260200190815260200160002060080160006101000a81548160ff021916908315150217905550817f33e13ecb54c3076d8e8bb8c2881800a4d972b792045ffae98fdf46df365fed7560405160405180910390a26112d082610789565b611303565b817f526441bb6c1aba3c9a4a6ca1d6545da9c2333c8c48343ef398eb858d72b7923660405160405180910390a25b919050565b60006002549050816005600083815260200190815260200160002060008201518160000160006101000a81548173ffffffffffffffffffffffffffffffffffffffff021916908373ffffffffffffffffffffffffffffffffffffffff16021790555060208201518160010160006101000a81548173ffffffffffffffffffffffffffffffffffffffff021916908373ffffffffffffffffffffffffffffffffffffffff1602179055506040820151816002015560608201518160030160006101000a81548173ffffffffffffffffffffffffffffffffffffffff021916908373ffffffffffffffffffffffffffffffffffffffff1602179055506080820151816004015560a0820151816005015560c0820151816006015560e082015181600701556101008201518160080160006101000a81548160ff0219169083151502179055509050506001600260008282540192505081905550807fc0ba8fe4b176c1714197d43b9cc6bcf797a4a7461c5fe8d0ef6e184ae7601e5160405160405180910390a2919050565b6000806000905060008090505b60036000858152602001908152602001600020805490508110156115a4576006600085815260200190815260200160002060006003600087815260200190815260200160002083815481106114ef57fe5b9060005260206000200160009054906101000a900473ffffffffffffffffffffffffffffffffffffffff1673ffffffffffffffffffffffffffffffffffffffff1673ffffffffffffffffffffffffffffffffffffffff16815260200190815260200160002060009054906101000a900460ff161561156e576001820191505b6005600085815260200190815260200160002060020154821415611597576001925050506115a7565b808060010191505061149e565b50505b919050565b604051806101200160405280600073ffffffffffffffffffffffffffffffffffffffff168152602001600073ffffffffffffffffffffffffffffffffffffffff16815260200160008152602001600073ffffffffffffffffffffffffffffffffffffffff16815260200160008152602001600081526020016000815260200160008152602001600015158152509056fe5468652073656e6465722068617320746f206465706f73697420746865206578616374207072696365206f6620746865206c6f616e20696e2074686520636f6e7472616374a265627a7a723158209475225ae41d21d6e999bb14a8affcb8ba2dfd26c097c646116caa5df6acf28164736f6c634300050c0032",
  "source": "pragma solidity ^0.5.0;\n\ncontract Mortgage {\n    address payable owner;\n    uint ETHER=(10**18);\n\n    struct BankContract{\n        address bank;\n        address beneficiary;\n        //mapping (address => bool) isParty;\n        uint required;\n        //address[] parties;\n        address payable pin_owner;\n        uint pin;\n        uint amount;\n        uint rates;\n        uint length;\n        bool executed;\n    }\n\n    uint public MortgageCount=0;\n    mapping (uint => address[]) public parties;\n    mapping (uint => mapping(address => bool)) public isParty;\n    mapping (uint => BankContract) public mortgages;\n    mapping (uint => mapping (address => bool)) public confirmations;\n    mapping (address => uint) pendingWithdrawals;\n\n    event Submission(uint indexed transactionId);\n    event Deposit(address indexed sender, uint value);\n    event Confirmation(address indexed sender, uint indexed transactionId);\n    event Execution(uint indexed transactionId);\n    event Revocation(uint transactionId,address indexed sender);\n    event ExecutionFailure(uint indexed transactionId);\n\n\n    modifier validRequirement(uint ownerCount, uint _required) {\n        if (   _required > ownerCount || _required == 0 || ownerCount == 0)\n            revert();\n        _;\n    } \n \n\n    /// @dev Fallback function allows to deposit ether.\n    function()\n        external\n        payable\n    {\n        if (msg.value > 0) {\n            emit Deposit(msg.sender, msg.value);\n    }\n    }\n\n\n    /*\n     * Public functions\n     */\n    /// @dev Contract constructor sets initial owners and required number of confirmations.\n    constructor() public {\n    }\n\n    function getDeposit() public view returns (uint256){\n        return address(this).balance;\n    }\n\n    function withdraw(uint transactionId) public{\n        require(isParty[transactionId][msg.sender],\"Only party\");\n        // against re-entrancy attack \n        require(pendingWithdrawals[mortgages[transactionId].pin_owner]!=0);\n        pendingWithdrawals[mortgages[transactionId].pin_owner]=0;\n        mortgages[transactionId].pin_owner.transfer(address(this).balance);\n    }\n\n\n    /// @dev Allows an owner to submit and confirm a transaction.\n    /// @return Returns transaction ID.\n    function submitTransaction(address _bank,address _beneficiary,address payable _pin_owner, uint _pin, uint _amount,uint _rates, uint _length) payable public returns (uint transactionId) {\n        //address[3] memory _parties = [_bank,_beneficiary,_pin_owner];\n        /*\n        BankContract storage trx = BankContract({\n            bank: _bank,\n            beneficiary: _beneficiary,\n            parties: [_bank,_beneficiary,_pin_owner],\n            pin_owner: _pin_owner,\n            required:3,\n            pin:_pin,\n            amount: _amount,\n            rates: _rates,\n            length: _length,\n            executed: false\n        });\n        BankContract storage trx;\n    \n        trx.bank=_bank;\n        trx.beneficiary= _beneficiary;\n        trx.parties=new address[](0);\n        trx.parties.push(_bank);\n        trx.parties.push(_beneficiary);\n        trx.parties.push(_pin_owner);\n        trx.pin_owner= _pin_owner;\n        trx.required=3;\n        trx.pin=_pin;\n        trx.amount= _amount;\n        trx.rates= _rates;\n        trx.length= _length;\n        trx.executed= false;\n        */\n\n        BankContract memory trx = BankContract(_bank,_beneficiary,3,\n        _pin_owner,_pin,_amount,_rates,_length,false);\n        transactionId = addTransaction(trx);\n        parties[transactionId].push(_bank);\n        parties[transactionId].push(_beneficiary);\n        parties[transactionId].push(_pin_owner);\n        for (uint i=0; i<parties[transactionId].length; i++) {\n            require(!isParty[transactionId][parties[transactionId][i]] && parties[transactionId][i] != address(0));\n            isParty[transactionId][parties[transactionId][i]] = true;\n        }\n        pendingWithdrawals[_pin_owner]=_amount*ETHER;\n        require(msg.value == _amount*ETHER,\"The sender has to deposit the exact price of the loan in the contract\");\n        address(this).transfer(_amount*ETHER);\n        confirmTransaction(transactionId);\n        return transactionId;\n    }\n\n        /// @dev Adds a new transaction to the transaction mapping, if transaction does not exist yet.\n    /// @return Returns transaction ID.\n    function addTransaction(BankContract memory txx) internal returns (uint transactionId) {\n        transactionId = MortgageCount;\n        mortgages[transactionId] = txx;\n        MortgageCount += 1;\n        emit Submission(transactionId);\n    }\n\n    function isExecuted(uint transactionId)public view returns (bool){\n        return mortgages[transactionId].executed;\n    }\n\n    /// @dev Allows an owner to confirm a transaction.\n    /// @param transactionId Transaction ID.\n    function confirmTransaction(uint transactionId) public returns (bool) {\n        require(confirmations[transactionId][msg.sender] == false);\n        require(isParty[transactionId][msg.sender]==true);\n        confirmations[transactionId][msg.sender] = true;\n        emit Confirmation(msg.sender, transactionId);\n        executeTransaction(transactionId);\n    }\n\n    /// @dev Allows an owner to revoke a confirmation for a transaction.\n    /// @param transactionId Transaction ID.\n    function revokeConfirmation(uint transactionId) public {\n        require(confirmations[transactionId][msg.sender] == true);\n        require(isParty[transactionId][msg.sender]==true);\n        confirmations[transactionId][msg.sender] = false;\n        emit Revocation(transactionId,msg.sender);\n    }\n\n    /// @dev Allows anyone to execute a confirmed transaction.\n    /// @param transactionId Transaction ID.\n    function executeTransaction(uint transactionId) public payable returns (bool) {\n        if (isConfirmed(transactionId)) {\n            //pin_owner.transfer(mortgages[transactionId].amount);\n            mortgages[transactionId].executed=true;\n            emit Execution(transactionId);\n            withdraw(transactionId);\n        }else{\n            emit ExecutionFailure(transactionId);\n        }\n    }\n\n        /*\n         * (Possible) Helper Functions\n         */\n    /// @dev Returns the confirmation status of a transaction.\n    /// @param transactionId Transaction ID.\n    /// @return Confirmation status.\n    function isConfirmed(uint transactionId) internal view returns (bool) {\n        uint count = 0;\n        for (uint i=0; i<parties[transactionId].length; i++) {\n            if (confirmations[transactionId][parties[transactionId][i]])\n                count += 1;\n            if (count == mortgages[transactionId].required)\n                return true;\n        }\n    }\n/*\n    function InitializeContract(address _bank, address _client, address payable _pin_owner, uint _required)public{\n        address[] _parties=[];\n        mapping (address => bool) public _isParty;\n        parties.push(_bank);\n        parties.push(_client);\n        parties.push(_pin_owner);\n        for (uint i=0; i<parties.length; i++) {\n            require(!isParty[parties[i]] && parties[i] != address(0));\n            isParty[parties[i]] = true;\n        }\n        pin_owner =_pin_owner;\n        required = _required;\n        DataContract memory dc = DataContract({\n            isParty: _isParty,\n            parties: _parties,\n            pin_owner: _pin_owner,\n            transactionid:_tid,\n        })\n    }\n*/\n\n\n\n\n}",
  "sourcePath": "/home/alexlo/NIST/solidity-project/landreg/contracts/Mortgage.sol",
  "compiler": {
    "name": "solc",
    "version": "0.5.12+commit.7709ece9.Emscripten.clang"
  },
  "schemaVersion": "3.0.19",
  "updatedAt": "2020-01-28T20:46:42.380Z",
  "networkType": "ethereum",
  "devdoc": {
    "methods": {
      "confirmTransaction(uint256)": {
        "details": "Allows an owner to confirm a transaction.",
        "params": {
          "transactionId": "Transaction ID."
        }
      },
      "constructor": {
        "details": "Contract constructor sets initial owners and required number of confirmations."
      },
      "executeTransaction(uint256)": {
        "details": "Allows anyone to execute a confirmed transaction.",
        "params": {
          "transactionId": "Transaction ID."
        }
      },
      "revokeConfirmation(uint256)": {
        "details": "Allows an owner to revoke a confirmation for a transaction.",
        "params": {
          "transactionId": "Transaction ID."
        }
      },
      "submitTransaction(address,address,address,uint256,uint256,uint256,uint256)": {
        "details": "Allows an owner to submit and confirm a transaction.",
        "return": "Returns transaction ID."
      }
    }
  },
  "userdoc": {
    "methods": {}
  }
}