{
  "contractName": "Mortgage",
  "abi": [
    {
      "inputs": [],
      "payable": false,
      "stateMutability": "nonpayable",
      "type": "constructor"
    },
    {
      "anonymous": false,
      "inputs": [
        {
          "indexed": true,
          "internalType": "address",
          "name": "sender",
          "type": "address"
        },
        {
          "indexed": true,
          "internalType": "uint256",
          "name": "transactionId",
          "type": "uint256"
        }
      ],
      "name": "Confirmation",
      "type": "event"
    },
    {
      "anonymous": false,
      "inputs": [
        {
          "indexed": true,
          "internalType": "address",
          "name": "sender",
          "type": "address"
        },
        {
          "indexed": false,
          "internalType": "uint256",
          "name": "value",
          "type": "uint256"
        }
      ],
      "name": "Deposit",
      "type": "event"
    },
    {
      "anonymous": false,
      "inputs": [
        {
          "indexed": true,
          "internalType": "uint256",
          "name": "transactionId",
          "type": "uint256"
        }
      ],
      "name": "Execution",
      "type": "event"
    },
    {
      "anonymous": false,
      "inputs": [
        {
          "indexed": true,
          "internalType": "uint256",
          "name": "transactionId",
          "type": "uint256"
        }
      ],
      "name": "ExecutionFailure",
      "type": "event"
    },
    {
      "anonymous": false,
      "inputs": [
        {
          "indexed": true,
          "internalType": "address",
          "name": "previousOwner",
          "type": "address"
        },
        {
          "indexed": true,
          "internalType": "address",
          "name": "newOwner",
          "type": "address"
        }
      ],
      "name": "OwnershipTransferred",
      "type": "event"
    },
    {
      "anonymous": false,
      "inputs": [
        {
          "indexed": false,
          "internalType": "uint256",
          "name": "transactionId",
          "type": "uint256"
        },
        {
          "indexed": true,
          "internalType": "address",
          "name": "sender",
          "type": "address"
        }
      ],
      "name": "Revocation",
      "type": "event"
    },
    {
      "anonymous": false,
      "inputs": [
        {
          "indexed": true,
          "internalType": "uint256",
          "name": "transactionId",
          "type": "uint256"
        }
      ],
      "name": "Submission",
      "type": "event"
    },
    {
      "payable": true,
      "stateMutability": "payable",
      "type": "fallback"
    },
    {
      "constant": true,
      "inputs": [],
      "name": "MortgageCount",
      "outputs": [
        {
          "internalType": "uint256",
          "name": "",
          "type": "uint256"
        }
      ],
      "payable": false,
      "stateMutability": "view",
      "type": "function"
    },
    {
      "constant": true,
      "inputs": [
        {
          "internalType": "uint256",
          "name": "",
          "type": "uint256"
        },
        {
          "internalType": "address",
          "name": "",
          "type": "address"
        }
      ],
      "name": "confirmations",
      "outputs": [
        {
          "internalType": "bool",
          "name": "",
          "type": "bool"
        }
      ],
      "payable": false,
      "stateMutability": "view",
      "type": "function"
    },
    {
      "constant": true,
      "inputs": [],
      "name": "contractPaused",
      "outputs": [
        {
          "internalType": "bool",
          "name": "",
          "type": "bool"
        }
      ],
      "payable": false,
      "stateMutability": "view",
      "type": "function"
    },
    {
      "constant": true,
      "inputs": [],
      "name": "isOwner",
      "outputs": [
        {
          "internalType": "bool",
          "name": "",
          "type": "bool"
        }
      ],
      "payable": false,
      "stateMutability": "view",
      "type": "function"
    },
    {
      "constant": true,
      "inputs": [
        {
          "internalType": "uint256",
          "name": "",
          "type": "uint256"
        },
        {
          "internalType": "address",
          "name": "",
          "type": "address"
        }
      ],
      "name": "isParty",
      "outputs": [
        {
          "internalType": "bool",
          "name": "",
          "type": "bool"
        }
      ],
      "payable": false,
      "stateMutability": "view",
      "type": "function"
    },
    {
      "constant": true,
      "inputs": [
        {
          "internalType": "uint256",
          "name": "",
          "type": "uint256"
        }
      ],
      "name": "mortgages",
      "outputs": [
        {
          "internalType": "address",
          "name": "bank",
          "type": "address"
        },
        {
          "internalType": "address",
          "name": "beneficiary",
          "type": "address"
        },
        {
          "internalType": "uint256",
          "name": "required",
          "type": "uint256"
        },
        {
          "internalType": "address payable",
          "name": "pin_owner",
          "type": "address"
        },
        {
          "internalType": "uint256",
          "name": "pin",
          "type": "uint256"
        },
        {
          "internalType": "uint256",
          "name": "amount",
          "type": "uint256"
        },
        {
          "internalType": "uint256",
          "name": "rates",
          "type": "uint256"
        },
        {
          "internalType": "uint256",
          "name": "length",
          "type": "uint256"
        },
        {
          "internalType": "bool",
          "name": "executed",
          "type": "bool"
        }
      ],
      "payable": false,
      "stateMutability": "view",
      "type": "function"
    },
    {
      "constant": true,
      "inputs": [],
      "name": "owner",
      "outputs": [
        {
          "internalType": "address",
          "name": "",
          "type": "address"
        }
      ],
      "payable": false,
      "stateMutability": "view",
      "type": "function"
    },
    {
      "constant": true,
      "inputs": [
        {
          "internalType": "uint256",
          "name": "",
          "type": "uint256"
        },
        {
          "internalType": "uint256",
          "name": "",
          "type": "uint256"
        }
      ],
      "name": "parties",
      "outputs": [
        {
          "internalType": "address",
          "name": "",
          "type": "address"
        }
      ],
      "payable": false,
      "stateMutability": "view",
      "type": "function"
    },
    {
      "constant": false,
      "inputs": [],
      "name": "renounceOwnership",
      "outputs": [],
      "payable": false,
      "stateMutability": "nonpayable",
      "type": "function"
    },
    {
      "constant": false,
      "inputs": [
        {
          "internalType": "address",
          "name": "newOwner",
          "type": "address"
        }
      ],
      "name": "transferOwnership",
      "outputs": [],
      "payable": false,
      "stateMutability": "nonpayable",
      "type": "function"
    },
    {
      "constant": false,
      "inputs": [],
      "name": "circuitBreaker",
      "outputs": [],
      "payable": false,
      "stateMutability": "nonpayable",
      "type": "function"
    },
    {
      "constant": true,
      "inputs": [],
      "name": "getDeposit",
      "outputs": [
        {
          "internalType": "uint256",
          "name": "",
          "type": "uint256"
        }
      ],
      "payable": false,
      "stateMutability": "view",
      "type": "function"
    },
    {
      "constant": false,
      "inputs": [
        {
          "internalType": "uint256",
          "name": "transactionId",
          "type": "uint256"
        }
      ],
      "name": "withdraw",
      "outputs": [],
      "payable": false,
      "stateMutability": "nonpayable",
      "type": "function"
    },
    {
      "constant": false,
      "inputs": [
        {
          "internalType": "address",
          "name": "_bank",
          "type": "address"
        },
        {
          "internalType": "address",
          "name": "_beneficiary",
          "type": "address"
        },
        {
          "internalType": "address payable",
          "name": "_pin_owner",
          "type": "address"
        },
        {
          "internalType": "uint256",
          "name": "_pin",
          "type": "uint256"
        },
        {
          "internalType": "uint256",
          "name": "_amount",
          "type": "uint256"
        },
        {
          "internalType": "uint256",
          "name": "_rates",
          "type": "uint256"
        },
        {
          "internalType": "uint256",
          "name": "_length",
          "type": "uint256"
        },
        {
          "internalType": "address",
          "name": "addr",
          "type": "address"
        }
      ],
      "name": "submitTransaction",
      "outputs": [
        {
          "internalType": "uint256",
          "name": "transactionId",
          "type": "uint256"
        }
      ],
      "payable": true,
      "stateMutability": "payable",
      "type": "function"
    },
    {
      "constant": true,
      "inputs": [
        {
          "internalType": "uint256",
          "name": "transactionId",
          "type": "uint256"
        }
      ],
      "name": "isExecuted",
      "outputs": [
        {
          "internalType": "bool",
          "name": "",
          "type": "bool"
        }
      ],
      "payable": false,
      "stateMutability": "view",
      "type": "function"
    },
    {
      "constant": false,
      "inputs": [
        {
          "internalType": "uint256",
          "name": "transactionId",
          "type": "uint256"
        },
        {
          "internalType": "address",
          "name": "addr",
          "type": "address"
        }
      ],
      "name": "confirmTransaction",
      "outputs": [],
      "payable": false,
      "stateMutability": "nonpayable",
      "type": "function"
    },
    {
      "constant": false,
      "inputs": [
        {
          "internalType": "uint256",
          "name": "transactionId",
          "type": "uint256"
        }
      ],
      "name": "revokeConfirmation",
      "outputs": [],
      "payable": false,
      "stateMutability": "nonpayable",
      "type": "function"
    },
    {
      "constant": false,
      "inputs": [
        {
          "internalType": "uint256",
          "name": "transactionId",
          "type": "uint256"
        },
        {
          "internalType": "address",
          "name": "addr",
          "type": "address"
        }
      ],
      "name": "executeTransaction",
      "outputs": [],
      "payable": true,
      "stateMutability": "payable",
      "type": "function"
    }
  ],
  "bytecode": "0x6080604052670de0b6b3a764000060015560006002556000600360006101000a81548160ff02191690831515021790555034801561003c57600080fd5b5061004b61010b60201b60201c565b6000806101000a81548173ffffffffffffffffffffffffffffffffffffffff021916908373ffffffffffffffffffffffffffffffffffffffff1602179055506000809054906101000a900473ffffffffffffffffffffffffffffffffffffffff1673ffffffffffffffffffffffffffffffffffffffff16600073ffffffffffffffffffffffffffffffffffffffff167f8be0079c531659141344cd1fd0a4f28419497f9722a3daafe3b4186f6b6457e060405160405180910390a3610113565b600033905090565b611e6c806101226000396000f3fe6080604052600436106101095760003560e01c806376a6bf5211610095578063b4f28dd111610064578063b4f28dd1146105bf578063c399ec88146105ea578063c7e436a614610615578063d8febd71146106f6578063f2fde38b1461076957610109565b806376a6bf52146104b75780638a67456a1461050a5780638da5cb5b146105395780638f32d59b1461059057610109565b80633411c81c116100dc5780633411c81c1461023e57806352554a78146102b157806360f247b514610336578063715018a61461039157806375861f27146103a857610109565b806316efd9411461016357806320ea8d861461017a57806329ba8780146101b55780632e1a7d4d14610203575b6000341115610161573373ffffffffffffffffffffffffffffffffffffffff167fe1fffcc4923d04b559f4d29a8bfc6cda04eb5b0d3c460751c2402c5c5cc9109c346040518082815260200191505060405180910390a25b005b34801561016f57600080fd5b506101786107ba565b005b34801561018657600080fd5b506101b36004803603602081101561019d57600080fd5b810190808035906020019092919050505061088e565b005b610201600480360360408110156101cb57600080fd5b8101908080359060200190929190803573ffffffffffffffffffffffffffffffffffffffff169060200190929190505050610a24565b005b34801561020f57600080fd5b5061023c6004803603602081101561022657600080fd5b8101908080359060200190929190505050610be3565b005b34801561024a57600080fd5b506102976004803603604081101561026157600080fd5b8101908080359060200190929190803573ffffffffffffffffffffffffffffffffffffffff169060200190929190505050610e48565b604051808215151515815260200191505060405180910390f35b3480156102bd57600080fd5b506102f4600480360360408110156102d457600080fd5b810190808035906020019092919080359060200190929190505050610e77565b604051808273ffffffffffffffffffffffffffffffffffffffff1673ffffffffffffffffffffffffffffffffffffffff16815260200191505060405180910390f35b34801561034257600080fd5b5061038f6004803603604081101561035957600080fd5b8101908080359060200190929190803573ffffffffffffffffffffffffffffffffffffffff169060200190929190505050610ec2565b005b34801561039d57600080fd5b506103a6611079565b005b3480156103b457600080fd5b506103e1600480360360208110156103cb57600080fd5b81019080803590602001909291905050506111b2565b604051808a73ffffffffffffffffffffffffffffffffffffffff1673ffffffffffffffffffffffffffffffffffffffff1681526020018973ffffffffffffffffffffffffffffffffffffffff1673ffffffffffffffffffffffffffffffffffffffff1681526020018881526020018773ffffffffffffffffffffffffffffffffffffffff1673ffffffffffffffffffffffffffffffffffffffff16815260200186815260200185815260200184815260200183815260200182151515158152602001995050505050505050505060405180910390f35b3480156104c357600080fd5b506104f0600480360360208110156104da57600080fd5b810190808035906020019092919050505061126d565b604051808215151515815260200191505060405180910390f35b34801561051657600080fd5b5061051f61129a565b604051808215151515815260200191505060405180910390f35b34801561054557600080fd5b5061054e6112ad565b604051808273ffffffffffffffffffffffffffffffffffffffff1673ffffffffffffffffffffffffffffffffffffffff16815260200191505060405180910390f35b34801561059c57600080fd5b506105a56112d6565b604051808215151515815260200191505060405180910390f35b3480156105cb57600080fd5b506105d4611334565b6040518082815260200191505060405180910390f35b3480156105f657600080fd5b506105ff61133a565b6040518082815260200191505060405180910390f35b6106e0600480360361010081101561062c57600080fd5b81019080803573ffffffffffffffffffffffffffffffffffffffff169060200190929190803573ffffffffffffffffffffffffffffffffffffffff169060200190929190803573ffffffffffffffffffffffffffffffffffffffff16906020019092919080359060200190929190803590602001909291908035906020019092919080359060200190929190803573ffffffffffffffffffffffffffffffffffffffff169060200190929190505050611359565b6040518082815260200191505060405180910390f35b34801561070257600080fd5b5061074f6004803603604081101561071957600080fd5b8101908080359060200190929190803573ffffffffffffffffffffffffffffffffffffffff169060200190929190505050611897565b604051808215151515815260200191505060405180910390f35b34801561077557600080fd5b506107b86004803603602081101561078c57600080fd5b81019080803573ffffffffffffffffffffffffffffffffffffffff1690602001909291905050506118c6565b005b6107c26112d6565b610834576040517f08c379a00000000000000000000000000000000000000000000000000000000081526004018080602001828103825260208152602001807f4f776e61626c653a2063616c6c6572206973206e6f7420746865206f776e657281525060200191505060405180910390fd5b60001515600360009054906101000a900460ff1615151415610870576001600360006101000a81548160ff02191690831515021790555061088c565b6000600360006101000a81548160ff0219169083151502179055505b565b600115156007600083815260200190815260200160002060003373ffffffffffffffffffffffffffffffffffffffff1673ffffffffffffffffffffffffffffffffffffffff16815260200190815260200160002060009054906101000a900460ff161515146108fc57600080fd5b600115156005600083815260200190815260200160002060003373ffffffffffffffffffffffffffffffffffffffff1673ffffffffffffffffffffffffffffffffffffffff16815260200190815260200160002060009054906101000a900460ff1615151461096a57600080fd5b60006007600083815260200190815260200160002060003373ffffffffffffffffffffffffffffffffffffffff1673ffffffffffffffffffffffffffffffffffffffff16815260200190815260200160002060006101000a81548160ff0219169083151502179055503373ffffffffffffffffffffffffffffffffffffffff167f01f63c1b9d3957c18de0c44c6275215a4ad8986480fd414a049af3c3643ec9b3826040518082815260200191505060405180910390a250565b610a2d8261194c565b15610bb15760016006600084815260200190815260200160002060080160006101000a81548160ff021916908315150217905550817f33e13ecb54c3076d8e8bb8c2881800a4d972b792045ffae98fdf46df365fed7560405160405180910390a2610a9782610be3565b60008190508073ffffffffffffffffffffffffffffffffffffffff16632307636f6006600086815260200190815260200160002060010160009054906101000a900473ffffffffffffffffffffffffffffffffffffffff1660066000878152602001908152602001600020600401546040518363ffffffff1660e01b8152600401808373ffffffffffffffffffffffffffffffffffffffff1673ffffffffffffffffffffffffffffffffffffffff16815260200182815260200192505050602060405180830381600087803b158015610b6f57600080fd5b505af1158015610b83573d6000803e3d6000fd5b505050506040513d6020811015610b9957600080fd5b81019080805190602001909291905050505050610bdf565b817f526441bb6c1aba3c9a4a6ca1d6545da9c2333c8c48343ef398eb858d72b7923660405160405180910390a25b5050565b6005600082815260200190815260200160002060003373ffffffffffffffffffffffffffffffffffffffff1673ffffffffffffffffffffffffffffffffffffffff16815260200190815260200160002060009054906101000a900460ff16610cb3576040517f08c379a000000000000000000000000000000000000000000000000000000000815260040180806020018281038252600a8152602001807f4f6e6c792070617274790000000000000000000000000000000000000000000081525060200191505060405180910390fd5b6000600860006006600085815260200190815260200160002060030160009054906101000a900473ffffffffffffffffffffffffffffffffffffffff1673ffffffffffffffffffffffffffffffffffffffff1673ffffffffffffffffffffffffffffffffffffffff168152602001908152602001600020541415610d3657600080fd5b6000600860006006600085815260200190815260200160002060030160009054906101000a900473ffffffffffffffffffffffffffffffffffffffff1673ffffffffffffffffffffffffffffffffffffffff1673ffffffffffffffffffffffffffffffffffffffff168152602001908152602001600020819055506006600082815260200190815260200160002060030160009054906101000a900473ffffffffffffffffffffffffffffffffffffffff1673ffffffffffffffffffffffffffffffffffffffff166108fc3073ffffffffffffffffffffffffffffffffffffffff16319081150290604051600060405180830381858888f19350505050158015610e44573d6000803e3d6000fd5b5050565b60076020528160005260406000206020528060005260406000206000915091509054906101000a900460ff1681565b60046020528160005260406000208181548110610e9057fe5b906000526020600020016000915091509054906101000a900473ffffffffffffffffffffffffffffffffffffffff1681565b60001515600360009054906101000a900460ff16151514610ee257600080fd5b600015156007600084815260200190815260200160002060003373ffffffffffffffffffffffffffffffffffffffff1673ffffffffffffffffffffffffffffffffffffffff16815260200190815260200160002060009054906101000a900460ff16151514610f5057600080fd5b600115156005600084815260200190815260200160002060003373ffffffffffffffffffffffffffffffffffffffff1673ffffffffffffffffffffffffffffffffffffffff16815260200190815260200160002060009054906101000a900460ff16151514610fbe57600080fd5b60016007600084815260200190815260200160002060003373ffffffffffffffffffffffffffffffffffffffff1673ffffffffffffffffffffffffffffffffffffffff16815260200190815260200160002060006101000a81548160ff021916908315150217905550813373ffffffffffffffffffffffffffffffffffffffff167f4a504a94899432a9846e1aa406dceb1bcfd538bb839071d49d1e5e23f5be30ef60405160405180910390a36110758282610a24565b5050565b6110816112d6565b6110f3576040517f08c379a00000000000000000000000000000000000000000000000000000000081526004018080602001828103825260208152602001807f4f776e61626c653a2063616c6c6572206973206e6f7420746865206f776e657281525060200191505060405180910390fd5b600073ffffffffffffffffffffffffffffffffffffffff166000809054906101000a900473ffffffffffffffffffffffffffffffffffffffff1673ffffffffffffffffffffffffffffffffffffffff167f8be0079c531659141344cd1fd0a4f28419497f9722a3daafe3b4186f6b6457e060405160405180910390a360008060006101000a81548173ffffffffffffffffffffffffffffffffffffffff021916908373ffffffffffffffffffffffffffffffffffffffff160217905550565b60066020528060005260406000206000915090508060000160009054906101000a900473ffffffffffffffffffffffffffffffffffffffff16908060010160009054906101000a900473ffffffffffffffffffffffffffffffffffffffff16908060020154908060030160009054906101000a900473ffffffffffffffffffffffffffffffffffffffff16908060040154908060050154908060060154908060070154908060080160009054906101000a900460ff16905089565b60006006600083815260200190815260200160002060080160009054906101000a900460ff169050919050565b600360009054906101000a900460ff1681565b60008060009054906101000a900473ffffffffffffffffffffffffffffffffffffffff16905090565b60008060009054906101000a900473ffffffffffffffffffffffffffffffffffffffff1673ffffffffffffffffffffffffffffffffffffffff16611318611a67565b73ffffffffffffffffffffffffffffffffffffffff1614905090565b60025481565b60003073ffffffffffffffffffffffffffffffffffffffff1631905090565b6000801515600360009054906101000a900460ff1615151461137a57600080fd5b611382611d3c565b6040518061012001604052808b73ffffffffffffffffffffffffffffffffffffffff1681526020018a73ffffffffffffffffffffffffffffffffffffffff168152602001600381526020018973ffffffffffffffffffffffffffffffffffffffff16815260200188815260200187815260200186815260200185815260200160001515815250905061141381611a6f565b9150600460008381526020019081526020016000208a90806001815401808255809150509060018203906000526020600020016000909192909190916101000a81548173ffffffffffffffffffffffffffffffffffffffff021916908373ffffffffffffffffffffffffffffffffffffffff16021790555050600460008381526020019081526020016000208990806001815401808255809150509060018203906000526020600020016000909192909190916101000a81548173ffffffffffffffffffffffffffffffffffffffff021916908373ffffffffffffffffffffffffffffffffffffffff16021790555050600460008381526020019081526020016000208890806001815401808255809150509060018203906000526020600020016000909192909190916101000a81548173ffffffffffffffffffffffffffffffffffffffff021916908373ffffffffffffffffffffffffffffffffffffffff1602179055505060008090505b600460008481526020019081526020016000208054905081101561178d576005600084815260200190815260200160002060006004600086815260200190815260200160002083815481106115d157fe5b9060005260206000200160009054906101000a900473ffffffffffffffffffffffffffffffffffffffff1673ffffffffffffffffffffffffffffffffffffffff1673ffffffffffffffffffffffffffffffffffffffff16815260200190815260200160002060009054906101000a900460ff161580156116c65750600073ffffffffffffffffffffffffffffffffffffffff1660046000858152602001908152602001600020828154811061168257fe5b9060005260206000200160009054906101000a900473ffffffffffffffffffffffffffffffffffffffff1673ffffffffffffffffffffffffffffffffffffffff1614155b6116cf57600080fd5b600160056000858152602001908152602001600020600060046000878152602001908152602001600020848154811061170457fe5b9060005260206000200160009054906101000a900473ffffffffffffffffffffffffffffffffffffffff1673ffffffffffffffffffffffffffffffffffffffff1673ffffffffffffffffffffffffffffffffffffffff16815260200190815260200160002060006101000a81548160ff0219169083151502179055508080600101915050611580565b506001548602600860008a73ffffffffffffffffffffffffffffffffffffffff1673ffffffffffffffffffffffffffffffffffffffff1681526020019081526020016000208190555060015486023414611832576040517f08c379a0000000000000000000000000000000000000000000000000000000008152600401808060200182810382526045815260200180611dcd6045913960600191505060405180910390fd5b3073ffffffffffffffffffffffffffffffffffffffff166108fc60015488029081150290604051600060405180830381858888f1935050505015801561187c573d6000803e3d6000fd5b506118878284610ec2565b8191505098975050505050505050565b60056020528160005260406000206020528060005260406000206000915091509054906101000a900460ff1681565b6118ce6112d6565b611940576040517f08c379a00000000000000000000000000000000000000000000000000000000081526004018080602001828103825260208152602001807f4f776e61626c653a2063616c6c6572206973206e6f7420746865206f776e657281525060200191505060405180910390fd5b61194981611bf8565b50565b6000806000905060008090505b6004600085815260200190815260200160002080549050811015611a5f576007600085815260200190815260200160002060006004600087815260200190815260200160002083815481106119aa57fe5b9060005260206000200160009054906101000a900473ffffffffffffffffffffffffffffffffffffffff1673ffffffffffffffffffffffffffffffffffffffff1673ffffffffffffffffffffffffffffffffffffffff16815260200190815260200160002060009054906101000a900460ff1615611a29576001820191505b6006600085815260200190815260200160002060020154821415611a5257600192505050611a62565b8080600101915050611959565b50505b919050565b600033905090565b60006002549050816006600083815260200190815260200160002060008201518160000160006101000a81548173ffffffffffffffffffffffffffffffffffffffff021916908373ffffffffffffffffffffffffffffffffffffffff16021790555060208201518160010160006101000a81548173ffffffffffffffffffffffffffffffffffffffff021916908373ffffffffffffffffffffffffffffffffffffffff1602179055506040820151816002015560608201518160030160006101000a81548173ffffffffffffffffffffffffffffffffffffffff021916908373ffffffffffffffffffffffffffffffffffffffff1602179055506080820151816004015560a0820151816005015560c0820151816006015560e082015181600701556101008201518160080160006101000a81548160ff0219169083151502179055509050506001600260008282540192505081905550807fc0ba8fe4b176c1714197d43b9cc6bcf797a4a7461c5fe8d0ef6e184ae7601e5160405160405180910390a2919050565b600073ffffffffffffffffffffffffffffffffffffffff168173ffffffffffffffffffffffffffffffffffffffff161415611c7e576040517f08c379a0000000000000000000000000000000000000000000000000000000008152600401808060200182810382526026815260200180611e126026913960400191505060405180910390fd5b8073ffffffffffffffffffffffffffffffffffffffff166000809054906101000a900473ffffffffffffffffffffffffffffffffffffffff1673ffffffffffffffffffffffffffffffffffffffff167f8be0079c531659141344cd1fd0a4f28419497f9722a3daafe3b4186f6b6457e060405160405180910390a3806000806101000a81548173ffffffffffffffffffffffffffffffffffffffff021916908373ffffffffffffffffffffffffffffffffffffffff16021790555050565b604051806101200160405280600073ffffffffffffffffffffffffffffffffffffffff168152602001600073ffffffffffffffffffffffffffffffffffffffff16815260200160008152602001600073ffffffffffffffffffffffffffffffffffffffff16815260200160008152602001600081526020016000815260200160008152602001600015158152509056fe5468652073656e6465722068617320746f206465706f73697420746865206578616374207072696365206f6620746865206c6f616e20696e2074686520636f6e74726163744f776e61626c653a206e6577206f776e657220697320746865207a65726f2061646472657373a265627a7a72315820fe32b5b3be1f981c1785cbca463d1379bd62a299d4abf3b7012ee1a77d66611264736f6c634300050c0032",
  "source": "import \"@openzeppelin/contracts/ownership/Ownable.sol\";\npragma solidity ^0.5.0;\n\ncontract Registry {\n    function updatePropertyFromMortgage(address ownerAddress, uint pin) public returns(bool success);\n}\n\ncontract Mortgage is Ownable {\n    //Variables\n    uint ETHER=(10**18);\n    uint public MortgageCount=0;\n    bool public contractPaused = false;\n\n    mapping (uint => address[]) public parties;\n    mapping (uint => mapping(address => bool)) public isParty;\n    mapping (uint => BankContract) public mortgages;\n    mapping (uint => mapping (address => bool)) public confirmations;\n    mapping (address => uint) pendingWithdrawals;\n\n    //Structs\n    struct BankContract{\n        address bank;\n        address beneficiary;\n        //mapping (address => bool) isParty;\n        uint required;\n        //address[] parties;\n        address payable pin_owner;\n        uint pin;\n        uint amount;\n        uint rates;\n        uint length;\n        bool executed;\n    }\n\n    //events\n    event Submission(uint indexed transactionId);\n    event Deposit(address indexed sender, uint value);\n    event Confirmation(address indexed sender, uint indexed transactionId);\n    event Execution(uint indexed transactionId);\n    event Revocation(uint transactionId,address indexed sender);\n    event ExecutionFailure(uint indexed transactionId);\n\n    //modifiers\n    // If the contract is paused, stop the modified function attached\n    modifier checkIfPaused() {\n        require(contractPaused == false);\n        _;\n    } \n \n\n    /// @dev Fallback function allows to deposit ether.\n    function()\n        external\n        payable\n    {\n        if (msg.value > 0) {\n            emit Deposit(msg.sender, msg.value);\n    }\n    }\n\n\n\n    /// @dev Contract constructor sets initial owners and required number of confirmations.\n    constructor() public {\n    }\n\n    /// @dev circuitbreaker function that allows to stop the contract for time for any reason\n    function circuitBreaker() public onlyOwner() {\n    if (contractPaused == false) { contractPaused = true; }\n    else { contractPaused = false; }\n}\n\n    /// @dev allows anyone to check the balance of the contract\n    /// @return returns the contract balance\n    function getDeposit() public view returns (uint256){\n        return address(this).balance;\n    }\n\n    /// @dev Allows the contract to give the money to the owner of the property after everybody signed\n    /// @param  transactionId Transaction ID\n    function withdraw(uint transactionId) public{\n        require(isParty[transactionId][msg.sender],\"Only party\");\n        // against re-entrancy attack \n        require(pendingWithdrawals[mortgages[transactionId].pin_owner]!=0);\n        pendingWithdrawals[mortgages[transactionId].pin_owner]=0;\n        mortgages[transactionId].pin_owner.transfer(address(this).balance);\n    }\n\n\n    /// @dev Allows anyone to submit and confirm a transaction.\n    /// @param _bank represent the one that lend money\n    /// @param _beneficiary represent the one whom the money has been lent to\n    /// @param _pin_owner represent the owner of the property that the beneficiary wants to buy\n    /// @param _pin represent the property identification number\n    /// @param _amount represent the nb of ether lent\n    /// @param _rates represent the interest\n    /// @param _length the amount of time the beneficiary has to pay back the _bank\n    /// @param addr the address of the contract that holds the registry\n    /// @return Returns transaction ID.\n    function submitTransaction(address _bank,address _beneficiary,address payable _pin_owner, uint _pin, uint _amount,uint _rates, uint _length,address addr) payable public checkIfPaused() returns (uint transactionId) {\n\n        BankContract memory trx = BankContract(_bank,_beneficiary,3,\n        _pin_owner,_pin,_amount,_rates,_length,false);\n        transactionId = addTransaction(trx);\n        parties[transactionId].push(_bank);\n        parties[transactionId].push(_beneficiary);\n        parties[transactionId].push(_pin_owner);\n        for (uint i=0; i<parties[transactionId].length; i++) {\n            require(!isParty[transactionId][parties[transactionId][i]] && parties[transactionId][i] != address(0));\n            isParty[transactionId][parties[transactionId][i]] = true;\n        }\n        pendingWithdrawals[_pin_owner]=_amount*ETHER;\n        require(msg.value == _amount*ETHER,\"The sender has to deposit the exact price of the loan in the contract\");\n        address(this).transfer(_amount*ETHER);\n        confirmTransaction(transactionId,addr);\n        return transactionId;\n    }\n\n        /// @dev Adds a new transaction to the transaction mapping, if transaction does not exist yet.\n        /// @param txx is the bankcontract just initialized \n        /// @return Returns transaction ID.\n    function addTransaction(BankContract memory txx) internal returns (uint transactionId) {\n        transactionId = MortgageCount;\n        mortgages[transactionId] = txx;\n        MortgageCount += 1;\n        emit Submission(transactionId);\n    }\n\n    /// @dev Check if the transaction has been executed\n    /// @param transactionId Transaction ID.\n    function isExecuted(uint transactionId)public view returns (bool){\n        return mortgages[transactionId].executed;\n    }\n\n    /// @dev Allows an owner to confirm a transaction.\n    /// @param transactionId Transaction ID.\n    /// @param addr is the address of the contract representing the land registry\n    function confirmTransaction(uint transactionId,address addr) public checkIfPaused() {\n        require(confirmations[transactionId][msg.sender] == false);\n        require(isParty[transactionId][msg.sender]==true);\n        confirmations[transactionId][msg.sender] = true;\n        emit Confirmation(msg.sender, transactionId);\n        executeTransaction(transactionId,addr);\n    }\n\n    /// @dev Allows an owner to revoke a confirmation for a transaction.\n    /// @param transactionId Transaction ID.\n    function revokeConfirmation(uint transactionId) public {\n        require(confirmations[transactionId][msg.sender] == true);\n        require(isParty[transactionId][msg.sender]==true);\n        confirmations[transactionId][msg.sender] = false;\n        emit Revocation(transactionId,msg.sender);\n    }\n\n    /// @dev Allows anyone to execute a confirmed transaction.\n    /// @param transactionId Transaction ID.\n    /// @param addr is the address of the contract representing the land registry\n    function executeTransaction(uint transactionId,address addr) public payable {\n        if (isConfirmed(transactionId)) {\n            //pin_owner.transfer(mortgages[transactionId].amount);\n            mortgages[transactionId].executed=true;\n            emit Execution(transactionId);\n            withdraw(transactionId);\n            Registry r = Registry(addr);\n            r.updatePropertyFromMortgage(mortgages[transactionId].beneficiary,mortgages[transactionId].pin);\n        }else{\n            emit ExecutionFailure(transactionId);\n        }\n    }\n\n    /// @dev Returns the confirmation status of a transaction.\n    /// @param transactionId Transaction ID.\n    /// @return Confirmation status.\n    function isConfirmed(uint transactionId) internal view returns (bool) {\n        uint count = 0;\n        for (uint i=0; i<parties[transactionId].length; i++) {\n            if (confirmations[transactionId][parties[transactionId][i]])\n                count += 1;\n            if (count == mortgages[transactionId].required)\n                return true;\n        }\n    }\n\n}",
  "sourcePath": "/home/alexlo/NIST/solidity-project/landreg/contracts/Mortgage.sol",
  "compiler": {
    "name": "solc",
    "version": "0.5.12+commit.7709ece9.Emscripten.clang"
  },
  "schemaVersion": "3.0.19",
  "updatedAt": "2020-01-31T20:02:17.825Z",
  "networkType": "ethereum",
  "devdoc": {
    "methods": {
      "circuitBreaker()": {
        "details": "circuitbreaker function that allows to stop the contract for time for any reason"
      },
      "confirmTransaction(uint256,address)": {
        "details": "Allows an owner to confirm a transaction.",
        "params": {
          "addr": "is the address of the contract representing the land registry",
          "transactionId": "Transaction ID."
        }
      },
      "constructor": {
        "details": "Contract constructor sets initial owners and required number of confirmations."
      },
      "executeTransaction(uint256,address)": {
        "details": "Allows anyone to execute a confirmed transaction.",
        "params": {
          "addr": "is the address of the contract representing the land registry",
          "transactionId": "Transaction ID."
        }
      },
      "getDeposit()": {
        "details": "allows anyone to check the balance of the contract",
        "return": "returns the contract balance"
      },
      "isExecuted(uint256)": {
        "details": "Check if the transaction has been executed",
        "params": {
          "transactionId": "Transaction ID."
        }
      },
      "isOwner()": {
        "details": "Returns true if the caller is the current owner."
      },
      "owner()": {
        "details": "Returns the address of the current owner."
      },
      "renounceOwnership()": {
        "details": "Leaves the contract without owner. It will not be possible to call `onlyOwner` functions anymore. Can only be called by the current owner.     * NOTE: Renouncing ownership will leave the contract without an owner, thereby removing any functionality that is only available to the owner."
      },
      "revokeConfirmation(uint256)": {
        "details": "Allows an owner to revoke a confirmation for a transaction.",
        "params": {
          "transactionId": "Transaction ID."
        }
      },
      "submitTransaction(address,address,address,uint256,uint256,uint256,uint256,address)": {
        "details": "Allows anyone to submit and confirm a transaction.",
        "params": {
          "_amount": "represent the nb of ether lent",
          "_bank": "represent the one that lend money",
          "_beneficiary": "represent the one whom the money has been lent to",
          "_length": "the amount of time the beneficiary has to pay back the _bank",
          "_pin": "represent the property identification number",
          "_pin_owner": "represent the owner of the property that the beneficiary wants to buy",
          "_rates": "represent the interest",
          "addr": "the address of the contract that holds the registry"
        },
        "return": "Returns transaction ID."
      },
      "transferOwnership(address)": {
        "details": "Transfers ownership of the contract to a new account (`newOwner`). Can only be called by the current owner."
      },
      "withdraw(uint256)": {
        "details": "Allows the contract to give the money to the owner of the property after everybody signed",
        "params": {
          "transactionId": "Transaction ID"
        }
      }
    }
  },
  "userdoc": {
    "methods": {}
  }
}