{
  "contractName": "Registry",
  "abi": [
    {
      "inputs": [],
      "payable": false,
      "stateMutability": "nonpayable",
      "type": "constructor"
    },
    {
      "anonymous": false,
      "inputs": [
        {
          "indexed": false,
          "internalType": "uint256",
          "name": "_pin",
          "type": "uint256"
        }
      ],
      "name": "LogDeleteProperty",
      "type": "event"
    },
    {
      "anonymous": false,
      "inputs": [
        {
          "indexed": false,
          "internalType": "uint256",
          "name": "_pin",
          "type": "uint256"
        },
        {
          "indexed": false,
          "internalType": "address",
          "name": "_owner",
          "type": "address"
        }
      ],
      "name": "LogNewProperty",
      "type": "event"
    },
    {
      "anonymous": false,
      "inputs": [
        {
          "indexed": false,
          "internalType": "address",
          "name": "_oldOwner",
          "type": "address"
        },
        {
          "indexed": false,
          "internalType": "address",
          "name": "_newOwner",
          "type": "address"
        }
      ],
      "name": "LogUpdateProperty",
      "type": "event"
    },
    {
      "constant": true,
      "inputs": [],
      "name": "owner",
      "outputs": [
        {
          "internalType": "address",
          "name": "",
          "type": "address"
        }
      ],
      "payable": false,
      "stateMutability": "view",
      "type": "function"
    },
    {
      "constant": true,
      "inputs": [
        {
          "internalType": "uint256",
          "name": "",
          "type": "uint256"
        }
      ],
      "name": "properties",
      "outputs": [
        {
          "internalType": "address",
          "name": "owner",
          "type": "address"
        },
        {
          "internalType": "uint256",
          "name": "listPointer",
          "type": "uint256"
        }
      ],
      "payable": false,
      "stateMutability": "view",
      "type": "function"
    },
    {
      "constant": true,
      "inputs": [
        {
          "internalType": "uint256",
          "name": "",
          "type": "uint256"
        }
      ],
      "name": "propertyList",
      "outputs": [
        {
          "internalType": "uint256",
          "name": "",
          "type": "uint256"
        }
      ],
      "payable": false,
      "stateMutability": "view",
      "type": "function"
    },
    {
      "constant": true,
      "inputs": [],
      "name": "listProperties",
      "outputs": [
        {
          "internalType": "uint256[]",
          "name": "",
          "type": "uint256[]"
        }
      ],
      "payable": false,
      "stateMutability": "view",
      "type": "function"
    },
    {
      "constant": true,
      "inputs": [
        {
          "internalType": "uint256",
          "name": "pin",
          "type": "uint256"
        }
      ],
      "name": "isProperty",
      "outputs": [
        {
          "internalType": "address",
          "name": "",
          "type": "address"
        }
      ],
      "payable": false,
      "stateMutability": "view",
      "type": "function"
    },
    {
      "constant": true,
      "inputs": [],
      "name": "getPropertyCount",
      "outputs": [
        {
          "internalType": "uint256",
          "name": "propertyCount",
          "type": "uint256"
        }
      ],
      "payable": false,
      "stateMutability": "view",
      "type": "function"
    },
    {
      "constant": false,
      "inputs": [
        {
          "internalType": "address",
          "name": "ownerAddress",
          "type": "address"
        },
        {
          "internalType": "uint256",
          "name": "pin",
          "type": "uint256"
        }
      ],
      "name": "newProperty",
      "outputs": [
        {
          "internalType": "bool",
          "name": "success",
          "type": "bool"
        }
      ],
      "payable": false,
      "stateMutability": "nonpayable",
      "type": "function"
    },
    {
      "constant": false,
      "inputs": [
        {
          "internalType": "address",
          "name": "ownerAddress",
          "type": "address"
        },
        {
          "internalType": "uint256",
          "name": "pin",
          "type": "uint256"
        }
      ],
      "name": "updateProperty",
      "outputs": [
        {
          "internalType": "bool",
          "name": "success",
          "type": "bool"
        }
      ],
      "payable": false,
      "stateMutability": "nonpayable",
      "type": "function"
    },
    {
      "constant": false,
      "inputs": [
        {
          "internalType": "address",
          "name": "ownerAddress",
          "type": "address"
        },
        {
          "internalType": "uint256",
          "name": "pin",
          "type": "uint256"
        }
      ],
      "name": "updatePropertyFromMortgage",
      "outputs": [
        {
          "internalType": "bool",
          "name": "success",
          "type": "bool"
        }
      ],
      "payable": false,
      "stateMutability": "nonpayable",
      "type": "function"
    },
    {
      "constant": false,
      "inputs": [
        {
          "internalType": "uint256",
          "name": "pin",
          "type": "uint256"
        }
      ],
      "name": "deleteProperty",
      "outputs": [
        {
          "internalType": "bool",
          "name": "success",
          "type": "bool"
        }
      ],
      "payable": false,
      "stateMutability": "nonpayable",
      "type": "function"
    }
  ],
  "bytecode": "0x608060405234801561001057600080fd5b50336000806101000a81548173ffffffffffffffffffffffffffffffffffffffff021916908373ffffffffffffffffffffffffffffffffffffffff16021790555073df7064894a0da6b741b86104af7875647b7767a3600160006001815260200190815260200160002060000160006101000a81548173ffffffffffffffffffffffffffffffffffffffff021916908373ffffffffffffffffffffffffffffffffffffffff1602179055506001600260019080600181540180825580915050906001820390600052602060002001600090919290919091505503600160006001815260200190815260200160002060010181905550610f86806101146000396000f3fe608060405234801561001057600080fd5b506004361061009e5760003560e01c80634673917c116100665780634673917c1461028257806351d2a3b2146102e85780637326b9011461032a5780638da5cb5b14610348578063f7b10808146103925761009e565b8063162186b5146100a3578063170140f1146101115780632307636f146101575780632625fe2a146101bd5780633d319c241461021c575b600080fd5b6100cf600480360360208110156100b957600080fd5b8101908080359060200190929190505050610407565b604051808273ffffffffffffffffffffffffffffffffffffffff1673ffffffffffffffffffffffffffffffffffffffff16815260200191505060405180910390f35b61013d6004803603602081101561012757600080fd5b8101908080359060200190929190505050610500565b604051808215151515815260200191505060405180910390f35b6101a36004803603604081101561016d57600080fd5b81019080803573ffffffffffffffffffffffffffffffffffffffff16906020019092919080359060200190929190505050610765565b604051808215151515815260200191505060405180910390f35b6101c5610926565b6040518080602001828103825283818151815260200191508051906020019060200280838360005b838110156102085780820151818401526020810190506101ed565b505050509050019250505060405180910390f35b6102686004803603604081101561023257600080fd5b81019080803573ffffffffffffffffffffffffffffffffffffffff1690602001909291908035906020019092919050505061097e565b604051808215151515815260200191505060405180910390f35b6102ce6004803603604081101561029857600080fd5b81019080803573ffffffffffffffffffffffffffffffffffffffff16906020019092919080359060200190929190505050610b69565b604051808215151515815260200191505060405180910390f35b610314600480360360208110156102fe57600080fd5b8101908080359060200190929190505050610dd0565b6040518082815260200191505060405180910390f35b610332610df1565b6040518082815260200191505060405180910390f35b610350610dfe565b604051808273ffffffffffffffffffffffffffffffffffffffff1673ffffffffffffffffffffffffffffffffffffffff16815260200191505060405180910390f35b6103be600480360360208110156103a857600080fd5b8101908080359060200190929190505050610e23565b604051808373ffffffffffffffffffffffffffffffffffffffff1673ffffffffffffffffffffffffffffffffffffffff1681526020018281526020019250505060405180910390f35b60008060028054905011610483576040517f08c379a00000000000000000000000000000000000000000000000000000000081526004018080602001828103825260188152602001807f5468657265206973206e6f2070726f706572747920796574000000000000000081525060200191505060405180910390fd5b8160026001600085815260200190815260200160002060010154815481106104a757fe5b906000526020600020015414156104f6576001600083815260200190815260200160002060000160009054906101000a900473ffffffffffffffffffffffffffffffffffffffff1690506104fb565b600090505b919050565b6000816001600082815260200190815260200160002060000160009054906101000a900473ffffffffffffffffffffffffffffffffffffffff1673ffffffffffffffffffffffffffffffffffffffff163373ffffffffffffffffffffffffffffffffffffffff16146105bd576040517f08c379a0000000000000000000000000000000000000000000000000000000008152600401808060200182810382526031815260200180610eb96031913960400191505060405180910390fd5b600073ffffffffffffffffffffffffffffffffffffffff166001600085815260200190815260200160002060000160009054906101000a900473ffffffffffffffffffffffffffffffffffffffff1673ffffffffffffffffffffffffffffffffffffffff161415610696576040517f08c379a00000000000000000000000000000000000000000000000000000000081526004018080602001828103825260168152602001807f546869732050494e20646f656e7327742065786973740000000000000000000081525060200191505060405180910390fd5b60006001600085815260200190815260200160002060010154905060006002600160028054905003815481106106c857fe5b9060005260206000200154905080600283815481106106e357fe5b906000526020600020018190555081600160008381526020019081526020016000206001018190555060028054809190600190036107219190610e67565b507f2f1aa08a60d93cf2b9023aa8fcef9835914570d698964b630072fb8d03f0db59856040518082815260200191505060405180910390a160019350505050919050565b60008073ffffffffffffffffffffffffffffffffffffffff1661078783610407565b73ffffffffffffffffffffffffffffffffffffffff1614156107f4576040517f08c379a0000000000000000000000000000000000000000000000000000000008152600401808060200182810382526037815260200180610f1b6037913960400191505060405180910390fd5b60006001600084815260200190815260200160002060000160009054906101000a900473ffffffffffffffffffffffffffffffffffffffff169050836001600085815260200190815260200160002060000160006101000a81548173ffffffffffffffffffffffffffffffffffffffff021916908373ffffffffffffffffffffffffffffffffffffffff1602179055507f02d288123278327b01540a2c41082e60dfc42e9062438956eb4ede8ceaf8e6888185604051808373ffffffffffffffffffffffffffffffffffffffff1673ffffffffffffffffffffffffffffffffffffffff1681526020018273ffffffffffffffffffffffffffffffffffffffff1673ffffffffffffffffffffffffffffffffffffffff1681526020019250505060405180910390a1600191505092915050565b6060600280548060200260200160405190810160405280929190818152602001828054801561097457602002820191906000526020600020905b815481526020019060010190808311610960575b5050505050905090565b60008073ffffffffffffffffffffffffffffffffffffffff166001600084815260200190815260200160002060000160009054906101000a900473ffffffffffffffffffffffffffffffffffffffff1673ffffffffffffffffffffffffffffffffffffffff1614610a57576040517f08c379a00000000000000000000000000000000000000000000000000000000081526004018080602001828103825260168152602001807f546869732050494e20616c72656164792065786973740000000000000000000081525060200191505060405180910390fd5b826001600084815260200190815260200160002060000160006101000a81548173ffffffffffffffffffffffffffffffffffffffff021916908373ffffffffffffffffffffffffffffffffffffffff1602179055506001600283908060018154018082558091505090600182039060005260206000200160009091929091909150550360016000848152602001908152602001600020600101819055507f05abf169440111d0876247524cb517061e72d226915126dc4affb0cdf2356c0e8284604051808381526020018273ffffffffffffffffffffffffffffffffffffffff1673ffffffffffffffffffffffffffffffffffffffff1681526020019250505060405180910390a16001905092915050565b60008060009054906101000a900473ffffffffffffffffffffffffffffffffffffffff1673ffffffffffffffffffffffffffffffffffffffff163373ffffffffffffffffffffffffffffffffffffffff1614610c10576040517f08c379a0000000000000000000000000000000000000000000000000000000008152600401808060200182810382526031815260200180610eea6031913960400191505060405180910390fd5b600073ffffffffffffffffffffffffffffffffffffffff16610c3183610407565b73ffffffffffffffffffffffffffffffffffffffff161415610c9e576040517f08c379a0000000000000000000000000000000000000000000000000000000008152600401808060200182810382526037815260200180610f1b6037913960400191505060405180910390fd5b60006001600084815260200190815260200160002060000160009054906101000a900473ffffffffffffffffffffffffffffffffffffffff169050836001600085815260200190815260200160002060000160006101000a81548173ffffffffffffffffffffffffffffffffffffffff021916908373ffffffffffffffffffffffffffffffffffffffff1602179055507f02d288123278327b01540a2c41082e60dfc42e9062438956eb4ede8ceaf8e6888185604051808373ffffffffffffffffffffffffffffffffffffffff1673ffffffffffffffffffffffffffffffffffffffff1681526020018273ffffffffffffffffffffffffffffffffffffffff1673ffffffffffffffffffffffffffffffffffffffff1681526020019250505060405180910390a1600191505092915050565b60028181548110610ddd57fe5b906000526020600020016000915090505481565b6000600280549050905090565b6000809054906101000a900473ffffffffffffffffffffffffffffffffffffffff1681565b60016020528060005260406000206000915090508060000160009054906101000a900473ffffffffffffffffffffffffffffffffffffffff16908060010154905082565b815481835581811115610e8e57818360005260206000209182019101610e8d9190610e93565b5b505050565b610eb591905b80821115610eb1576000816000905550600101610e99565b5090565b9056fe4f6e6c79206f776e6572206f66207468652070726f70657274792063616e2063616c6c20746869732066756e6374696f6e4f6e6c79206f776e6572206f662074686520636f6e74726163742063616e2063616c6c20746869732066756e6374696f6e546869732050494e20646f656e732774206578697374206f72206e6f2070726f7065727479206f6e2074686520626c6f636b636861696ea265627a7a723158207475e308401d18f4027e391e34b704798bdcbaa6ee91c76637438f6ea8125d4e64736f6c634300050c0032",
  "source": "pragma solidity ^0.5.0;\n\n/* The Registry contract keeps track of the land registry of the city. Every house should be registered in this contract */\n\ncontract Registry {\n\naddress public owner;\n/* Data model that allows me to have a stucts with delete and index */\n  struct Property {\n    address owner;\n    uint listPointer;\n  }\n\n  mapping(uint => Property) public properties;\n  uint[] public propertyList;\n\n  event LogNewProperty(uint _pin, address _owner);\n  event LogDeleteProperty(uint _pin);\n  event LogUpdateProperty(address _oldOwner,address _newOwner);\n\n  modifier isContractOwner(){ require(msg.sender == owner,\"Only owner of the contract can call this function\");_;}\n  modifier isPropertyOwner(uint pin){ require(msg.sender == properties[pin].owner,\"Only owner of the property can call this function\");_;}\n\n\nconstructor() public{\n  owner=msg.sender;\n  properties[1].owner = 0xDf7064894A0da6b741b86104af7875647b7767A3;\n  properties[1].listPointer = propertyList.push(1)-1;\n}\n\n  function listProperties() public view returns(uint[] memory ){\n    return propertyList;\n  }\n\n/* Function that check if a PIN (property identification number) exists */\n  function isProperty(uint pin) public view returns(address) {\n    require(propertyList.length>0,\"There is no property yet\");\n    if(propertyList[properties[pin].listPointer] == pin) {\n         return properties[pin].owner;\n     }else{\n         return address(0);\n     } \n  }\n\n    /* Check the number of property on the blockchain */\n  function getPropertyCount() public view returns(uint propertyCount) {\n    return propertyList.length;\n\n  }\n  \n/*function that create a new property on the blockchain */\n  function newProperty(address ownerAddress, uint pin) public returns(bool success) {\n    require(properties[pin].owner==address(0),\"This PIN already exist\");\n    properties[pin].owner = ownerAddress;\n    properties[pin].listPointer = propertyList.push(pin)-1;\n    emit LogNewProperty(pin,ownerAddress);\n    return true;\n  }\n/* Function that allows to change the owner of a property */\n  function updateProperty(address ownerAddress, uint pin) public isContractOwner() returns(bool success) {\n    require(isProperty(pin)!=address(0),\"This PIN doens't exist or no property on the blockchain\");\n    address oldOwner=properties[pin].owner;\n    properties[pin].owner = ownerAddress;\n    emit LogUpdateProperty(oldOwner,ownerAddress);\n    return true;\n  }\n\n  /* Function that allows to change the owner of a property */\n  function updatePropertyFromMortgage(address ownerAddress, uint pin) public returns(bool success) {\n    require(isProperty(pin)!=address(0),\"This PIN doens't exist or no property on the blockchain\");\n    address oldOwner=properties[pin].owner;\n    properties[pin].owner = ownerAddress;\n    emit LogUpdateProperty(oldOwner,ownerAddress);\n    return true;\n  }\n\n/*function that allow to delete a property on the blockchain */\n  function deleteProperty(uint pin) public isPropertyOwner(pin) returns(bool success) {\n    require(properties[pin].owner!=address(0),\"This PIN doens't exist\");\n    uint rowToDelete = properties[pin].listPointer;\n    uint keyToMove   = propertyList[propertyList.length-1];\n    propertyList[rowToDelete] = keyToMove;\n    properties[keyToMove].listPointer = rowToDelete;\n    propertyList.length--;\n    emit LogDeleteProperty(pin);\n    return true;\n  }\n\n}\n",
  "sourcePath": "/home/alexlo/NIST/solidity-project/landreg/contracts/Registry.sol",
  "compiler": {
    "name": "solc",
    "version": "0.5.12+commit.7709ece9.Emscripten.clang"
  },
  "schemaVersion": "3.0.19",
  "updatedAt": "2020-01-29T18:03:47.392Z",
  "networkType": "ethereum",
  "devdoc": {
    "methods": {}
  },
  "userdoc": {
    "methods": {}
  }
}