{
  "contractName": "RegistryProxy",
  "abi": [
    {
      "anonymous": false,
      "inputs": [
        {
          "indexed": true,
          "internalType": "address",
          "name": "previousOwner",
          "type": "address"
        },
        {
          "indexed": true,
          "internalType": "address",
          "name": "newOwner",
          "type": "address"
        }
      ],
      "name": "OwnershipTransferred",
      "type": "event"
    },
    {
      "anonymous": false,
      "inputs": [
        {
          "indexed": true,
          "internalType": "address",
          "name": "Registry",
          "type": "address"
        }
      ],
      "name": "Set",
      "type": "event"
    },
    {
      "constant": true,
      "inputs": [],
      "name": "Registry",
      "outputs": [
        {
          "internalType": "address",
          "name": "",
          "type": "address"
        }
      ],
      "payable": false,
      "stateMutability": "view",
      "type": "function"
    },
    {
      "constant": true,
      "inputs": [],
      "name": "isOwner",
      "outputs": [
        {
          "internalType": "bool",
          "name": "",
          "type": "bool"
        }
      ],
      "payable": false,
      "stateMutability": "view",
      "type": "function"
    },
    {
      "constant": true,
      "inputs": [],
      "name": "owner",
      "outputs": [
        {
          "internalType": "address",
          "name": "",
          "type": "address"
        }
      ],
      "payable": false,
      "stateMutability": "view",
      "type": "function"
    },
    {
      "constant": false,
      "inputs": [],
      "name": "renounceOwnership",
      "outputs": [],
      "payable": false,
      "stateMutability": "nonpayable",
      "type": "function"
    },
    {
      "constant": false,
      "inputs": [
        {
          "internalType": "address",
          "name": "newOwner",
          "type": "address"
        }
      ],
      "name": "transferOwnership",
      "outputs": [],
      "payable": false,
      "stateMutability": "nonpayable",
      "type": "function"
    },
    {
      "constant": false,
      "inputs": [
        {
          "internalType": "address",
          "name": "_registry",
          "type": "address"
        }
      ],
      "name": "set",
      "outputs": [],
      "payable": false,
      "stateMutability": "nonpayable",
      "type": "function"
    }
  ],
  "bytecode": "0x60806040526100126100d260201b60201c565b6000806101000a81548173ffffffffffffffffffffffffffffffffffffffff021916908373ffffffffffffffffffffffffffffffffffffffff1602179055506000809054906101000a900473ffffffffffffffffffffffffffffffffffffffff1673ffffffffffffffffffffffffffffffffffffffff16600073ffffffffffffffffffffffffffffffffffffffff167f8be0079c531659141344cd1fd0a4f28419497f9722a3daafe3b4186f6b6457e060405160405180910390a36100da565b600033905090565b6106e5806100e96000396000f3fe608060405234801561001057600080fd5b50600436106100625760003560e01c80632801617e14610067578063715018a6146100ab5780637db9743b146100b55780638da5cb5b146100ff5780638f32d59b14610149578063f2fde38b1461016b575b600080fd5b6100a96004803603602081101561007d57600080fd5b81019080803573ffffffffffffffffffffffffffffffffffffffff1690602001909291905050506101af565b005b6100b36102d2565b005b6100bd61040b565b604051808273ffffffffffffffffffffffffffffffffffffffff1673ffffffffffffffffffffffffffffffffffffffff16815260200191505060405180910390f35b610107610431565b604051808273ffffffffffffffffffffffffffffffffffffffff1673ffffffffffffffffffffffffffffffffffffffff16815260200191505060405180910390f35b61015161045a565b604051808215151515815260200191505060405180910390f35b6101ad6004803603602081101561018157600080fd5b81019080803573ffffffffffffffffffffffffffffffffffffffff1690602001909291905050506104b8565b005b6101b761045a565b610229576040517f08c379a00000000000000000000000000000000000000000000000000000000081526004018080602001828103825260208152602001807f4f776e61626c653a2063616c6c6572206973206e6f7420746865206f776e657281525060200191505060405180910390fd5b80600160006101000a81548173ffffffffffffffffffffffffffffffffffffffff021916908373ffffffffffffffffffffffffffffffffffffffff160217905550600160009054906101000a900473ffffffffffffffffffffffffffffffffffffffff1673ffffffffffffffffffffffffffffffffffffffff167f3c4dbb057f7df48b080ac34e14a9186ad0847e234436b06de4078464d5936c6260405160405180910390a250565b6102da61045a565b61034c576040517f08c379a00000000000000000000000000000000000000000000000000000000081526004018080602001828103825260208152602001807f4f776e61626c653a2063616c6c6572206973206e6f7420746865206f776e657281525060200191505060405180910390fd5b600073ffffffffffffffffffffffffffffffffffffffff166000809054906101000a900473ffffffffffffffffffffffffffffffffffffffff1673ffffffffffffffffffffffffffffffffffffffff167f8be0079c531659141344cd1fd0a4f28419497f9722a3daafe3b4186f6b6457e060405160405180910390a360008060006101000a81548173ffffffffffffffffffffffffffffffffffffffff021916908373ffffffffffffffffffffffffffffffffffffffff160217905550565b600160009054906101000a900473ffffffffffffffffffffffffffffffffffffffff1681565b60008060009054906101000a900473ffffffffffffffffffffffffffffffffffffffff16905090565b60008060009054906101000a900473ffffffffffffffffffffffffffffffffffffffff1673ffffffffffffffffffffffffffffffffffffffff1661049c61053e565b73ffffffffffffffffffffffffffffffffffffffff1614905090565b6104c061045a565b610532576040517f08c379a00000000000000000000000000000000000000000000000000000000081526004018080602001828103825260208152602001807f4f776e61626c653a2063616c6c6572206973206e6f7420746865206f776e657281525060200191505060405180910390fd5b61053b81610546565b50565b600033905090565b600073ffffffffffffffffffffffffffffffffffffffff168173ffffffffffffffffffffffffffffffffffffffff1614156105cc576040517f08c379a000000000000000000000000000000000000000000000000000000000815260040180806020018281038252602681526020018061068b6026913960400191505060405180910390fd5b8073ffffffffffffffffffffffffffffffffffffffff166000809054906101000a900473ffffffffffffffffffffffffffffffffffffffff1673ffffffffffffffffffffffffffffffffffffffff167f8be0079c531659141344cd1fd0a4f28419497f9722a3daafe3b4186f6b6457e060405160405180910390a3806000806101000a81548173ffffffffffffffffffffffffffffffffffffffff021916908373ffffffffffffffffffffffffffffffffffffffff1602179055505056fe4f776e61626c653a206e6577206f776e657220697320746865207a65726f2061646472657373a265627a7a7231582034a1e5ed7a111bc248cbe0edbf300bd314bab67d0b7a9a4dc8e3de1665817b0064736f6c634300050c0032",
  "source": "pragma solidity ^0.5.0;\n\nimport \"@openzeppelin/contracts/ownership/Ownable.sol\";\n\n/**\n * @title RegistryProxy\n * @dev Points to `LandRegistry`, enabling it to be upgraded if absolutely necessary.\n *\n * Contracts reference `this.landRegistry` to locate `LandRegistry`.\n * They also reference `owner` to identify blockimmo's 'administrator' (currently blockimmo but ownership may be transferred to a\n * contract / DAO in the near-future, or even rescinded).\n *\n * `TokenizedProperty` references `this` to enforce the `LandRegistry` and route blockimmo's 1% transaction fee on dividend payouts.\n * `ShareholderDAO` references `this` to allow blockimmo's 'administrator' to extend proposals for any `TokenizedProperty`.\n * `TokenSale` references `this` to route blockimmo's 1% transaction fee on sales.\n *\n * For now this centralized 'administrator' provides an extra layer of control / security until our contracts are time and battle tested.\n *\n * This contract is never intended to be upgraded.\n */\ncontract RegistryProxy is Ownable {\n  address public Registry;\n\n  event Set(address indexed Registry);\n\n  function set(address _registry) public onlyOwner() {\n    Registry = _registry;\n    emit Set(Registry);\n  }\n}\n",
  "sourcePath": "/home/alexlo/NIST/solidity-project/landreg/contracts/RegistryProxy.sol",
  "compiler": {
    "name": "solc",
    "version": "0.5.12+commit.7709ece9.Emscripten.clang"
  },
  "schemaVersion": "3.0.19",
  "updatedAt": "2020-01-23T15:03:45.668Z",
  "devdoc": {
    "details": "Points to `LandRegistry`, enabling it to be upgraded if absolutely necessary. * Contracts reference `this.landRegistry` to locate `LandRegistry`. They also reference `owner` to identify blockimmo's 'administrator' (currently blockimmo but ownership may be transferred to a contract / DAO in the near-future, or even rescinded). * `TokenizedProperty` references `this` to enforce the `LandRegistry` and route blockimmo's 1% transaction fee on dividend payouts. `ShareholderDAO` references `this` to allow blockimmo's 'administrator' to extend proposals for any `TokenizedProperty`. `TokenSale` references `this` to route blockimmo's 1% transaction fee on sales. * For now this centralized 'administrator' provides an extra layer of control / security until our contracts are time and battle tested. * This contract is never intended to be upgraded.",
    "methods": {
      "isOwner()": {
        "details": "Returns true if the caller is the current owner."
      },
      "owner()": {
        "details": "Returns the address of the current owner."
      },
      "renounceOwnership()": {
        "details": "Leaves the contract without owner. It will not be possible to call `onlyOwner` functions anymore. Can only be called by the current owner.     * NOTE: Renouncing ownership will leave the contract without an owner, thereby removing any functionality that is only available to the owner."
      },
      "transferOwnership(address)": {
        "details": "Transfers ownership of the contract to a new account (`newOwner`). Can only be called by the current owner."
      }
    },
    "title": "RegistryProxy"
  },
  "userdoc": {
    "methods": {}
  }
}