{
  "contractName": "Registry",
  "abi": [
    {
      "inputs": [],
      "payable": false,
      "stateMutability": "nonpayable",
      "type": "constructor"
    },
    {
      "anonymous": false,
      "inputs": [
        {
          "indexed": false,
          "internalType": "uint256",
          "name": "_pin",
          "type": "uint256"
        }
      ],
      "name": "LogDeleteProperty",
      "type": "event"
    },
    {
      "anonymous": false,
      "inputs": [
        {
          "indexed": false,
          "internalType": "uint256",
          "name": "_pin",
          "type": "uint256"
        },
        {
          "indexed": false,
          "internalType": "address",
          "name": "_owner",
          "type": "address"
        }
      ],
      "name": "LogNewProperty",
      "type": "event"
    },
    {
      "anonymous": false,
      "inputs": [
        {
          "indexed": false,
          "internalType": "address",
          "name": "_oldOwner",
          "type": "address"
        },
        {
          "indexed": false,
          "internalType": "address",
          "name": "_newOwner",
          "type": "address"
        }
      ],
      "name": "LogUpdateProperty",
      "type": "event"
    },
    {
      "constant": true,
      "inputs": [],
      "name": "owner",
      "outputs": [
        {
          "internalType": "address",
          "name": "",
          "type": "address"
        }
      ],
      "payable": false,
      "stateMutability": "view",
      "type": "function"
    },
    {
      "constant": true,
      "inputs": [
        {
          "internalType": "uint256",
          "name": "",
          "type": "uint256"
        }
      ],
      "name": "properties",
      "outputs": [
        {
          "internalType": "address",
          "name": "owner",
          "type": "address"
        },
        {
          "internalType": "uint256",
          "name": "listPointer",
          "type": "uint256"
        }
      ],
      "payable": false,
      "stateMutability": "view",
      "type": "function"
    },
    {
      "constant": true,
      "inputs": [
        {
          "internalType": "uint256",
          "name": "",
          "type": "uint256"
        }
      ],
      "name": "propertyList",
      "outputs": [
        {
          "internalType": "uint256",
          "name": "",
          "type": "uint256"
        }
      ],
      "payable": false,
      "stateMutability": "view",
      "type": "function"
    },
    {
      "constant": true,
      "inputs": [],
      "name": "listProperties",
      "outputs": [
        {
          "internalType": "uint256[]",
          "name": "",
          "type": "uint256[]"
        }
      ],
      "payable": false,
      "stateMutability": "view",
      "type": "function"
    },
    {
      "constant": true,
      "inputs": [
        {
          "internalType": "uint256",
          "name": "pin",
          "type": "uint256"
        }
      ],
      "name": "isProperty",
      "outputs": [
        {
          "internalType": "address",
          "name": "",
          "type": "address"
        }
      ],
      "payable": false,
      "stateMutability": "view",
      "type": "function"
    },
    {
      "constant": true,
      "inputs": [],
      "name": "getPropertyCount",
      "outputs": [
        {
          "internalType": "uint256",
          "name": "propertyCount",
          "type": "uint256"
        }
      ],
      "payable": false,
      "stateMutability": "view",
      "type": "function"
    },
    {
      "constant": false,
      "inputs": [
        {
          "internalType": "address",
          "name": "ownerAddress",
          "type": "address"
        },
        {
          "internalType": "uint256",
          "name": "pin",
          "type": "uint256"
        }
      ],
      "name": "newProperty",
      "outputs": [
        {
          "internalType": "bool",
          "name": "success",
          "type": "bool"
        }
      ],
      "payable": false,
      "stateMutability": "nonpayable",
      "type": "function"
    },
    {
      "constant": false,
      "inputs": [
        {
          "internalType": "address",
          "name": "ownerAddress",
          "type": "address"
        },
        {
          "internalType": "uint256",
          "name": "pin",
          "type": "uint256"
        }
      ],
      "name": "updateProperty",
      "outputs": [
        {
          "internalType": "bool",
          "name": "success",
          "type": "bool"
        }
      ],
      "payable": false,
      "stateMutability": "nonpayable",
      "type": "function"
    },
    {
      "constant": false,
      "inputs": [
        {
          "internalType": "uint256",
          "name": "pin",
          "type": "uint256"
        }
      ],
      "name": "deleteProperty",
      "outputs": [
        {
          "internalType": "bool",
          "name": "success",
          "type": "bool"
        }
      ],
      "payable": false,
      "stateMutability": "nonpayable",
      "type": "function"
    }
  ],
  "bytecode": "0x608060405234801561001057600080fd5b50336000806101000a81548173ffffffffffffffffffffffffffffffffffffffff021916908373ffffffffffffffffffffffffffffffffffffffff16021790555073dfde02443bb07858a44b917c74344e8ad6273ccc600160006001815260200190815260200160002060000160006101000a81548173ffffffffffffffffffffffffffffffffffffffff021916908373ffffffffffffffffffffffffffffffffffffffff1602179055506001600260019080600181540180825580915050906001820390600052602060002001600090919290919091505503600160006001815260200190815260200160002060010181905550610d54806101146000396000f3fe608060405234801561001057600080fd5b50600436106100935760003560e01c80634673917c116100665780634673917c1461021157806351d2a3b2146102775780637326b901146102b95780638da5cb5b146102d7578063f7b108081461032157610093565b8063162186b514610098578063170140f1146101065780632625fe2a1461014c5780633d319c24146101ab575b600080fd5b6100c4600480360360208110156100ae57600080fd5b8101908080359060200190929190505050610396565b604051808273ffffffffffffffffffffffffffffffffffffffff1673ffffffffffffffffffffffffffffffffffffffff16815260200191505060405180910390f35b6101326004803603602081101561011c57600080fd5b810190808035906020019092919050505061048f565b604051808215151515815260200191505060405180910390f35b6101546106f4565b6040518080602001828103825283818151815260200191508051906020019060200280838360005b8381101561019757808201518184015260208101905061017c565b505050509050019250505060405180910390f35b6101f7600480360360408110156101c157600080fd5b81019080803573ffffffffffffffffffffffffffffffffffffffff1690602001909291908035906020019092919050505061074c565b604051808215151515815260200191505060405180910390f35b61025d6004803603604081101561022757600080fd5b81019080803573ffffffffffffffffffffffffffffffffffffffff16906020019092919080359060200190929190505050610937565b604051808215151515815260200191505060405180910390f35b6102a36004803603602081101561028d57600080fd5b8101908080359060200190929190505050610b9e565b6040518082815260200191505060405180910390f35b6102c1610bbf565b6040518082815260200191505060405180910390f35b6102df610bcc565b604051808273ffffffffffffffffffffffffffffffffffffffff1673ffffffffffffffffffffffffffffffffffffffff16815260200191505060405180910390f35b61034d6004803603602081101561033757600080fd5b8101908080359060200190929190505050610bf1565b604051808373ffffffffffffffffffffffffffffffffffffffff1673ffffffffffffffffffffffffffffffffffffffff1681526020018281526020019250505060405180910390f35b60008060028054905011610412576040517f08c379a00000000000000000000000000000000000000000000000000000000081526004018080602001828103825260188152602001807f5468657265206973206e6f2070726f706572747920796574000000000000000081525060200191505060405180910390fd5b81600260016000858152602001908152602001600020600101548154811061043657fe5b90600052602060002001541415610485576001600083815260200190815260200160002060000160009054906101000a900473ffffffffffffffffffffffffffffffffffffffff16905061048a565b600090505b919050565b6000816001600082815260200190815260200160002060000160009054906101000a900473ffffffffffffffffffffffffffffffffffffffff1673ffffffffffffffffffffffffffffffffffffffff163373ffffffffffffffffffffffffffffffffffffffff161461054c576040517f08c379a0000000000000000000000000000000000000000000000000000000008152600401808060200182810382526031815260200180610c876031913960400191505060405180910390fd5b600073ffffffffffffffffffffffffffffffffffffffff166001600085815260200190815260200160002060000160009054906101000a900473ffffffffffffffffffffffffffffffffffffffff1673ffffffffffffffffffffffffffffffffffffffff161415610625576040517f08c379a00000000000000000000000000000000000000000000000000000000081526004018080602001828103825260168152602001807f546869732050494e20646f656e7327742065786973740000000000000000000081525060200191505060405180910390fd5b600060016000858152602001908152602001600020600101549050600060026001600280549050038154811061065757fe5b90600052602060002001549050806002838154811061067257fe5b906000526020600020018190555081600160008381526020019081526020016000206001018190555060028054809190600190036106b09190610c35565b507f2f1aa08a60d93cf2b9023aa8fcef9835914570d698964b630072fb8d03f0db59856040518082815260200191505060405180910390a160019350505050919050565b6060600280548060200260200160405190810160405280929190818152602001828054801561074257602002820191906000526020600020905b81548152602001906001019080831161072e575b5050505050905090565b60008073ffffffffffffffffffffffffffffffffffffffff166001600084815260200190815260200160002060000160009054906101000a900473ffffffffffffffffffffffffffffffffffffffff1673ffffffffffffffffffffffffffffffffffffffff1614610825576040517f08c379a00000000000000000000000000000000000000000000000000000000081526004018080602001828103825260168152602001807f546869732050494e20616c72656164792065786973740000000000000000000081525060200191505060405180910390fd5b826001600084815260200190815260200160002060000160006101000a81548173ffffffffffffffffffffffffffffffffffffffff021916908373ffffffffffffffffffffffffffffffffffffffff1602179055506001600283908060018154018082558091505090600182039060005260206000200160009091929091909150550360016000848152602001908152602001600020600101819055507f05abf169440111d0876247524cb517061e72d226915126dc4affb0cdf2356c0e8284604051808381526020018273ffffffffffffffffffffffffffffffffffffffff1673ffffffffffffffffffffffffffffffffffffffff1681526020019250505060405180910390a16001905092915050565b60008060009054906101000a900473ffffffffffffffffffffffffffffffffffffffff1673ffffffffffffffffffffffffffffffffffffffff163373ffffffffffffffffffffffffffffffffffffffff16146109de576040517f08c379a0000000000000000000000000000000000000000000000000000000008152600401808060200182810382526031815260200180610cb86031913960400191505060405180910390fd5b600073ffffffffffffffffffffffffffffffffffffffff166109ff83610396565b73ffffffffffffffffffffffffffffffffffffffff161415610a6c576040517f08c379a0000000000000000000000000000000000000000000000000000000008152600401808060200182810382526037815260200180610ce96037913960400191505060405180910390fd5b60006001600084815260200190815260200160002060000160009054906101000a900473ffffffffffffffffffffffffffffffffffffffff169050836001600085815260200190815260200160002060000160006101000a81548173ffffffffffffffffffffffffffffffffffffffff021916908373ffffffffffffffffffffffffffffffffffffffff1602179055507f02d288123278327b01540a2c41082e60dfc42e9062438956eb4ede8ceaf8e6888185604051808373ffffffffffffffffffffffffffffffffffffffff1673ffffffffffffffffffffffffffffffffffffffff1681526020018273ffffffffffffffffffffffffffffffffffffffff1673ffffffffffffffffffffffffffffffffffffffff1681526020019250505060405180910390a1600191505092915050565b60028181548110610bab57fe5b906000526020600020016000915090505481565b6000600280549050905090565b6000809054906101000a900473ffffffffffffffffffffffffffffffffffffffff1681565b60016020528060005260406000206000915090508060000160009054906101000a900473ffffffffffffffffffffffffffffffffffffffff16908060010154905082565b815481835581811115610c5c57818360005260206000209182019101610c5b9190610c61565b5b505050565b610c8391905b80821115610c7f576000816000905550600101610c67565b5090565b9056fe4f6e6c79206f776e6572206f66207468652070726f70657274792063616e2063616c6c20746869732066756e6374696f6e4f6e6c79206f776e6572206f662074686520636f6e74726163742063616e2063616c6c20746869732066756e6374696f6e546869732050494e20646f656e732774206578697374206f72206e6f2070726f7065727479206f6e2074686520626c6f636b636861696ea265627a7a72315820bc777e58f5775ad1625d42a19615392e930418781d7a37cc29bc5be35694de1864736f6c634300050c0032",
  "source": "pragma solidity ^0.5.0;\n\n/* The Registry contract keeps track of the land registry of the city. Every house should be registered in this contract */\n\ncontract Registry {\n\naddress public owner;\n/* Data model that allows me to have a stucts with delete and index */\n  struct Property {\n    address owner;\n    uint listPointer;\n  }\n\n  mapping(uint => Property) public properties;\n  uint[] public propertyList;\n\n  event LogNewProperty(uint _pin, address _owner);\n  event LogDeleteProperty(uint _pin);\n  event LogUpdateProperty(address _oldOwner,address _newOwner);\n\n  modifier isContractOwner(){ require(msg.sender == owner,\"Only owner of the contract can call this function\");_;}\n  modifier isPropertyOwner(uint pin){ require(msg.sender == properties[pin].owner,\"Only owner of the property can call this function\");_;}\n\n\nconstructor() public{\n  owner=msg.sender;\n  properties[1].owner = 0xdfde02443BB07858A44b917c74344e8AD6273CCc;\n  properties[1].listPointer = propertyList.push(1)-1;\n}\n\n  function listProperties() public view returns(uint[] memory ){\n    return propertyList;\n  }\n\n/* Function that check if a PIN (property identification number) exists */\n  function isProperty(uint pin) public view returns(address) {\n    require(propertyList.length>0,\"There is no property yet\");\n    if(propertyList[properties[pin].listPointer] == pin) {\n         return properties[pin].owner;\n     }else{\n         return address(0);\n     } \n  }\n\n    /* Check the number of property on the blockchain */\n  function getPropertyCount() public view returns(uint propertyCount) {\n    return propertyList.length;\n\n  }\n  \n/*function that create a new property on the blockchain */\n  function newProperty(address ownerAddress, uint pin) public returns(bool success) {\n    require(properties[pin].owner==address(0),\"This PIN already exist\");\n    properties[pin].owner = ownerAddress;\n    properties[pin].listPointer = propertyList.push(pin)-1;\n    emit LogNewProperty(pin,ownerAddress);\n    return true;\n  }\n/* Function that allows to change the owner of a property */\n  function updateProperty(address ownerAddress, uint pin) public isContractOwner() returns(bool success) {\n    require(isProperty(pin)!=address(0),\"This PIN doens't exist or no property on the blockchain\");\n    address oldOwner=properties[pin].owner;\n    properties[pin].owner = ownerAddress;\n    emit LogUpdateProperty(oldOwner,ownerAddress);\n    return true;\n  }\n/*function that allow to delete a property on the blockchain */\n  function deleteProperty(uint pin) public isPropertyOwner(pin) returns(bool success) {\n    require(properties[pin].owner!=address(0),\"This PIN doens't exist\");\n    uint rowToDelete = properties[pin].listPointer;\n    uint keyToMove   = propertyList[propertyList.length-1];\n    propertyList[rowToDelete] = keyToMove;\n    properties[keyToMove].listPointer = rowToDelete;\n    propertyList.length--;\n    emit LogDeleteProperty(pin);\n    return true;\n  }\n\n}\n",
  "sourcePath": "/home/alexlo/NIST/solidity-project/landreg/contracts/Registry.sol",
  "compiler": {
    "name": "solc",
    "version": "0.5.12+commit.7709ece9.Emscripten.clang"
  },
  "schemaVersion": "3.0.19",
  "updatedAt": "2020-01-28T12:46:04.762Z",
  "networkType": "ethereum",
  "devdoc": {
    "methods": {}
  },
  "userdoc": {
    "methods": {}
  }
}