{
  "contractName": "Mortgage",
  "abi": [
    {
      "inputs": [
        {
          "internalType": "address[]",
          "name": "_parties",
          "type": "address[]"
        },
        {
          "internalType": "uint256",
          "name": "_required",
          "type": "uint256"
        }
      ],
      "payable": false,
      "stateMutability": "nonpayable",
      "type": "constructor"
    },
    {
      "anonymous": false,
      "inputs": [
        {
          "indexed": true,
          "internalType": "address",
          "name": "sender",
          "type": "address"
        },
        {
          "indexed": true,
          "internalType": "uint256",
          "name": "transactionId",
          "type": "uint256"
        }
      ],
      "name": "Confirmation",
      "type": "event"
    },
    {
      "anonymous": false,
      "inputs": [
        {
          "indexed": true,
          "internalType": "address",
          "name": "sender",
          "type": "address"
        },
        {
          "indexed": false,
          "internalType": "uint256",
          "name": "value",
          "type": "uint256"
        }
      ],
      "name": "Deposit",
      "type": "event"
    },
    {
      "anonymous": false,
      "inputs": [
        {
          "indexed": true,
          "internalType": "uint256",
          "name": "transactionId",
          "type": "uint256"
        }
      ],
      "name": "Execution",
      "type": "event"
    },
    {
      "anonymous": false,
      "inputs": [
        {
          "indexed": true,
          "internalType": "uint256",
          "name": "transactionId",
          "type": "uint256"
        }
      ],
      "name": "ExecutionFailure",
      "type": "event"
    },
    {
      "anonymous": false,
      "inputs": [
        {
          "indexed": true,
          "internalType": "uint256",
          "name": "transactionId",
          "type": "uint256"
        }
      ],
      "name": "Submission",
      "type": "event"
    },
    {
      "payable": true,
      "stateMutability": "payable",
      "type": "fallback"
    },
    {
      "constant": true,
      "inputs": [],
      "name": "MortgageCount",
      "outputs": [
        {
          "internalType": "uint256",
          "name": "",
          "type": "uint256"
        }
      ],
      "payable": false,
      "stateMutability": "view",
      "type": "function"
    },
    {
      "constant": true,
      "inputs": [
        {
          "internalType": "uint256",
          "name": "",
          "type": "uint256"
        },
        {
          "internalType": "address",
          "name": "",
          "type": "address"
        }
      ],
      "name": "confirmations",
      "outputs": [
        {
          "internalType": "bool",
          "name": "",
          "type": "bool"
        }
      ],
      "payable": false,
      "stateMutability": "view",
      "type": "function"
    },
    {
      "constant": true,
      "inputs": [
        {
          "internalType": "address",
          "name": "",
          "type": "address"
        }
      ],
      "name": "isParty",
      "outputs": [
        {
          "internalType": "bool",
          "name": "",
          "type": "bool"
        }
      ],
      "payable": false,
      "stateMutability": "view",
      "type": "function"
    },
    {
      "constant": true,
      "inputs": [
        {
          "internalType": "uint256",
          "name": "",
          "type": "uint256"
        }
      ],
      "name": "mortgages",
      "outputs": [
        {
          "internalType": "address",
          "name": "bank",
          "type": "address"
        },
        {
          "internalType": "address",
          "name": "beneficiary",
          "type": "address"
        },
        {
          "internalType": "uint256",
          "name": "pin",
          "type": "uint256"
        },
        {
          "internalType": "uint256",
          "name": "amount",
          "type": "uint256"
        },
        {
          "internalType": "uint256",
          "name": "rates",
          "type": "uint256"
        },
        {
          "internalType": "uint256",
          "name": "length",
          "type": "uint256"
        },
        {
          "internalType": "bool",
          "name": "executed",
          "type": "bool"
        }
      ],
      "payable": false,
      "stateMutability": "view",
      "type": "function"
    },
    {
      "constant": true,
      "inputs": [
        {
          "internalType": "uint256",
          "name": "",
          "type": "uint256"
        }
      ],
      "name": "parties",
      "outputs": [
        {
          "internalType": "address",
          "name": "",
          "type": "address"
        }
      ],
      "payable": false,
      "stateMutability": "view",
      "type": "function"
    },
    {
      "constant": true,
      "inputs": [],
      "name": "required",
      "outputs": [
        {
          "internalType": "uint256",
          "name": "",
          "type": "uint256"
        }
      ],
      "payable": false,
      "stateMutability": "view",
      "type": "function"
    },
    {
      "constant": false,
      "inputs": [
        {
          "internalType": "address",
          "name": "_bank",
          "type": "address"
        },
        {
          "internalType": "address",
          "name": "_beneficiary",
          "type": "address"
        },
        {
          "internalType": "uint256",
          "name": "_pin",
          "type": "uint256"
        },
        {
          "internalType": "uint256",
          "name": "_amount",
          "type": "uint256"
        },
        {
          "internalType": "uint256",
          "name": "_rates",
          "type": "uint256"
        },
        {
          "internalType": "uint256",
          "name": "_length",
          "type": "uint256"
        }
      ],
      "name": "submitTransaction",
      "outputs": [
        {
          "internalType": "uint256",
          "name": "transactionId",
          "type": "uint256"
        }
      ],
      "payable": false,
      "stateMutability": "nonpayable",
      "type": "function"
    },
    {
      "constant": true,
      "inputs": [
        {
          "internalType": "uint256",
          "name": "transactionId",
          "type": "uint256"
        }
      ],
      "name": "isExecuted",
      "outputs": [
        {
          "internalType": "bool",
          "name": "",
          "type": "bool"
        }
      ],
      "payable": false,
      "stateMutability": "view",
      "type": "function"
    },
    {
      "constant": false,
      "inputs": [
        {
          "internalType": "uint256",
          "name": "transactionId",
          "type": "uint256"
        }
      ],
      "name": "confirmTransaction",
      "outputs": [
        {
          "internalType": "bool",
          "name": "",
          "type": "bool"
        }
      ],
      "payable": false,
      "stateMutability": "nonpayable",
      "type": "function"
    },
    {
      "constant": false,
      "inputs": [
        {
          "internalType": "uint256",
          "name": "transactionId",
          "type": "uint256"
        }
      ],
      "name": "revokeConfirmation",
      "outputs": [],
      "payable": false,
      "stateMutability": "nonpayable",
      "type": "function"
    },
    {
      "constant": false,
      "inputs": [
        {
          "internalType": "uint256",
          "name": "transactionId",
          "type": "uint256"
        }
      ],
      "name": "executeTransaction",
      "outputs": [
        {
          "internalType": "bool",
          "name": "",
          "type": "bool"
        }
      ],
      "payable": false,
      "stateMutability": "nonpayable",
      "type": "function"
    }
  ],
  "bytecode": "0x6080604052600360025560006004553480156200001b57600080fd5b5060405162000f2f38038062000f2f833981810160405260408110156200004157600080fd5b81019080805160405193929190846401000000008211156200006257600080fd5b838201915060208201858111156200007957600080fd5b82518660208202830111640100000000821117156200009757600080fd5b8083526020830192505050908051906020019060200280838360005b83811015620000d0578082015181840152602081019050620000b3565b505050509050016040526020018051906020019092919050505081518181811180620000fc5750600081145b80620001085750600082145b156200011357600080fd5b60008090505b84518110156200025757600360008683815181106200013457fe5b602002602001015173ffffffffffffffffffffffffffffffffffffffff1673ffffffffffffffffffffffffffffffffffffffff16815260200190815260200160002060009054906101000a900460ff16158015620001d35750600073ffffffffffffffffffffffffffffffffffffffff16858281518110620001b257fe5b602002602001015173ffffffffffffffffffffffffffffffffffffffff1614155b620001dd57600080fd5b600160036000878481518110620001f057fe5b602002602001015173ffffffffffffffffffffffffffffffffffffffff1673ffffffffffffffffffffffffffffffffffffffff16815260200190815260200160002060006101000a81548160ff021916908315150217905550808060010191505062000119565b5083600190805190602001906200027092919062000282565b50826002819055505050505062000357565b828054828255906000526020600020908101928215620002fe579160200282015b82811115620002fd5782518260006101000a81548173ffffffffffffffffffffffffffffffffffffffff021916908373ffffffffffffffffffffffffffffffffffffffff16021790555091602001919060010190620002a3565b5b5090506200030d919062000311565b5090565b6200035491905b808211156200035057600081816101000a81549073ffffffffffffffffffffffffffffffffffffffff02191690555060010162000318565b5090565b90565b610bc880620003676000396000f3fe60806040526004361061009c5760003560e01c806393cfe44f1161006457806393cfe44f14610347578063b4f28dd1146103f4578063c01a8c841461041f578063dc8452cd14610472578063ee22610b1461049d578063fc78b2e8146104f05761009c565b806320ea8d86146100f65780633411c81c1461013157806370651a18146101a457806375861f271461021f57806376a6bf52146102f4575b60003411156100f4573373ffffffffffffffffffffffffffffffffffffffff167fe1fffcc4923d04b559f4d29a8bfc6cda04eb5b0d3c460751c2402c5c5cc9109c346040518082815260200191505060405180910390a25b005b34801561010257600080fd5b5061012f6004803603602081101561011957600080fd5b8101908080359060200190929190505050610559565b005b34801561013d57600080fd5b5061018a6004803603604081101561015457600080fd5b8101908080359060200190929190803573ffffffffffffffffffffffffffffffffffffffff16906020019092919050505061055c565b604051808215151515815260200191505060405180910390f35b3480156101b057600080fd5b506101dd600480360360208110156101c757600080fd5b810190808035906020019092919050505061058b565b604051808273ffffffffffffffffffffffffffffffffffffffff1673ffffffffffffffffffffffffffffffffffffffff16815260200191505060405180910390f35b34801561022b57600080fd5b506102586004803603602081101561024257600080fd5b81019080803590602001909291905050506105c7565b604051808873ffffffffffffffffffffffffffffffffffffffff1673ffffffffffffffffffffffffffffffffffffffff1681526020018773ffffffffffffffffffffffffffffffffffffffff1673ffffffffffffffffffffffffffffffffffffffff1681526020018681526020018581526020018481526020018381526020018215151515815260200197505050505050505060405180910390f35b34801561030057600080fd5b5061032d6004803603602081101561031757600080fd5b8101908080359060200190929190505050610656565b604051808215151515815260200191505060405180910390f35b34801561035357600080fd5b506103de600480360360c081101561036a57600080fd5b81019080803573ffffffffffffffffffffffffffffffffffffffff169060200190929190803573ffffffffffffffffffffffffffffffffffffffff16906020019092919080359060200190929190803590602001909291908035906020019092919080359060200190929190505050610683565b6040518082815260200191505060405180910390f35b34801561040057600080fd5b50610409610711565b6040518082815260200191505060405180910390f35b34801561042b57600080fd5b506104586004803603602081101561044257600080fd5b8101908080359060200190929190505050610717565b604051808215151515815260200191505060405180910390f35b34801561047e57600080fd5b50610487610842565b6040518082815260200191505060405180910390f35b3480156104a957600080fd5b506104d6600480360360208110156104c057600080fd5b8101908080359060200190929190505050610848565b604051808215151515815260200191505060405180910390f35b3480156104fc57600080fd5b5061053f6004803603602081101561051357600080fd5b81019080803573ffffffffffffffffffffffffffffffffffffffff1690602001909291905050506108ec565b604051808215151515815260200191505060405180910390f35b50565b60066020528160005260406000206020528060005260406000206000915091509054906101000a900460ff1681565b6001818154811061059857fe5b906000526020600020016000915054906101000a900473ffffffffffffffffffffffffffffffffffffffff1681565b60056020528060005260406000206000915090508060000160009054906101000a900473ffffffffffffffffffffffffffffffffffffffff16908060010160009054906101000a900473ffffffffffffffffffffffffffffffffffffffff16908060020154908060030154908060040154908060050154908060060160009054906101000a900460ff16905087565b60006005600083815260200190815260200160002060060160009054906101000a900460ff169050919050565b600061068d610b28565b6040518060e001604052808973ffffffffffffffffffffffffffffffffffffffff1681526020018873ffffffffffffffffffffffffffffffffffffffff1681526020018781526020018681526020018581526020018481526020016000151581525090506106fa8161090c565b915061070582610717565b50509695505050505050565b60045481565b60008015156006600084815260200190815260200160002060003373ffffffffffffffffffffffffffffffffffffffff1673ffffffffffffffffffffffffffffffffffffffff16815260200190815260200160002060009054906101000a900460ff1615151461078657600080fd5b60016006600084815260200190815260200160002060003373ffffffffffffffffffffffffffffffffffffffff1673ffffffffffffffffffffffffffffffffffffffff16815260200190815260200160002060006101000a81548160ff021916908315150217905550813373ffffffffffffffffffffffffffffffffffffffff167f4a504a94899432a9846e1aa406dceb1bcfd538bb839071d49d1e5e23f5be30ef60405160405180910390a361083c82610848565b50919050565b60025481565b600061085382610a43565b156108b95760016005600084815260200190815260200160002060060160006101000a81548160ff021916908315150217905550817f33e13ecb54c3076d8e8bb8c2881800a4d972b792045ffae98fdf46df365fed7560405160405180910390a26108e7565b817f526441bb6c1aba3c9a4a6ca1d6545da9c2333c8c48343ef398eb858d72b7923660405160405180910390a25b919050565b60036020528060005260406000206000915054906101000a900460ff1681565b60006004549050816005600083815260200190815260200160002060008201518160000160006101000a81548173ffffffffffffffffffffffffffffffffffffffff021916908373ffffffffffffffffffffffffffffffffffffffff16021790555060208201518160010160006101000a81548173ffffffffffffffffffffffffffffffffffffffff021916908373ffffffffffffffffffffffffffffffffffffffff16021790555060408201518160020155606082015181600301556080820151816004015560a0820151816005015560c08201518160060160006101000a81548160ff0219169083151502179055509050506001600460008282540192505081905550807fc0ba8fe4b176c1714197d43b9cc6bcf797a4a7461c5fe8d0ef6e184ae7601e5160405160405180910390a2919050565b6000806000905060008090505b600180549050811015610b205760066000858152602001908152602001600020600060018381548110610a7f57fe5b9060005260206000200160009054906101000a900473ffffffffffffffffffffffffffffffffffffffff1673ffffffffffffffffffffffffffffffffffffffff1673ffffffffffffffffffffffffffffffffffffffff16815260200190815260200160002060009054906101000a900460ff1615610afe576001820191505b600254821415610b1357600192505050610b23565b8080600101915050610a50565b50505b919050565b6040518060e00160405280600073ffffffffffffffffffffffffffffffffffffffff168152602001600073ffffffffffffffffffffffffffffffffffffffff16815260200160008152602001600081526020016000815260200160008152602001600015158152509056fea265627a7a72315820b4b2d21cfaf3bd70d2fce12ff87d40ba492c4e52370a591ca2cf1553c3cc4cf664736f6c634300050c0032",
  "source": "pragma solidity ^0.5.0;\n\ncontract Mortgage {\n    address payable owner;\n\n    struct BankContract{\n        address bank;\n        address beneficiary;\n        uint pin;\n        uint amount;\n        uint rates;\n        uint length;\n        bool executed;\n    }\n\n    address[] public parties;\n    uint public required=3;\n    mapping (address => bool) public isParty;\n    uint public MortgageCount=0;\n    mapping (uint => BankContract) public mortgages;\n    mapping (uint => mapping (address => bool)) public confirmations;\n\n    event Submission(uint indexed transactionId);\n    event Deposit(address indexed sender, uint value);\n    event Confirmation(address indexed sender, uint indexed transactionId);\n    event Execution(uint indexed transactionId);\n    event ExecutionFailure(uint indexed transactionId);\n\n    modifier validRequirement(uint ownerCount, uint _required) {\n        if (   _required > ownerCount || _required == 0 || ownerCount == 0)\n            revert();\n        _;\n    }\n    \n    //modifier isParty(uint pin){ require(isParty[msg.sender],\"Only parties of this bankContract can call this function\");_;}\n \n \n\n    /// @dev Fallback function allows to deposit ether.\n    function()\n        external\n        payable\n    {\n        if (msg.value > 0) {\n            emit Deposit(msg.sender, msg.value);\n    }\n    }\n\n\n    /*\n     * Public functions\n     */\n    /// @dev Contract constructor sets initial owners and required number of confirmations.\n    /// @param _parties List of initial owners.\n    /// @param _required Number of required confirmations.\n    constructor(address[] memory _parties, uint _required) public validRequirement(_parties.length, _required) {\n        for (uint i=0; i<_parties.length; i++) {\n            require(!isParty[_parties[i]] && _parties[i] != address(0));\n            isParty[_parties[i]] = true;\n        }\n        parties = _parties;\n        required = _required;\n    }\n\n\n\n    /// @dev Allows an owner to submit and confirm a transaction.\n    /// @return Returns transaction ID.\n    function submitTransaction(address _bank,address _beneficiary, uint _pin, uint _amount,uint _rates, uint _length) public returns (uint transactionId) {\n        BankContract memory tx = BankContract({\n            bank: _bank,\n            beneficiary: _beneficiary,\n            pin:_pin,\n            amount: _amount,\n            rates: _rates,\n            length: _length,\n            executed: false\n        });\n        transactionId = addTransaction(tx);\n        confirmTransaction(transactionId);\n    }\n\n        /// @dev Adds a new transaction to the transaction mapping, if transaction does not exist yet.\n    /// @return Returns transaction ID.\n    function addTransaction(BankContract memory tx) internal returns (uint transactionId) {\n        transactionId = MortgageCount;\n        mortgages[transactionId] = tx;\n        MortgageCount += 1;\n        emit Submission(transactionId);\n    }\n\n    function isExecuted(uint transactionId)public view returns (bool){\n        return mortgages[transactionId].executed;\n    }\n\n    /// @dev Allows an owner to confirm a transaction.\n    /// @param transactionId Transaction ID.\n    function confirmTransaction(uint transactionId) public returns (bool) {\n        require(confirmations[transactionId][msg.sender] == false);\n        confirmations[transactionId][msg.sender] = true;\n        emit Confirmation(msg.sender, transactionId);\n        executeTransaction(transactionId);\n    }\n\n    /// @dev Allows an owner to revoke a confirmation for a transaction.\n    /// @param transactionId Transaction ID.\n    function revokeConfirmation(uint transactionId) public {}\n\n    /// @dev Allows anyone to execute a confirmed transaction.\n    /// @param transactionId Transaction ID.\n    function executeTransaction(uint transactionId) public returns (bool) {\n        if (isConfirmed(transactionId)) {\n            mortgages[transactionId].executed=true;\n            emit Execution(transactionId);\n        }else{\n            emit ExecutionFailure(transactionId);\n        }\n            //Transaction storage t = transactions[transactionId];  // using the \"storage\" keyword makes \"t\" a pointer to storage \n            //t.executed = true;\n            //(bool success, bytes memory returnedData) = t.destination.call.value(t.value)(t.data);\n            //if (success)\n        \n            //else {\n              //  emit ExecutionFailure(transactionId);\n               // t.executed = false;\n            //}\n//        }\n        //return true;\n    //}\n    }\n\n        /*\n         * (Possible) Helper Functions\n         */\n    /// @dev Returns the confirmation status of a transaction.\n    /// @param transactionId Transaction ID.\n    /// @return Confirmation status.\n    function isConfirmed(uint transactionId) internal view returns (bool) {\n        uint count = 0;\n        for (uint i=0; i<parties.length; i++) {\n            if (confirmations[transactionId][parties[i]])\n                count += 1;\n            if (count == required)\n                return true;\n        }\n    }\n\n\n\n\n\n}",
  "sourcePath": "/home/alexlo/NIST/solidity-project/landreg/contracts/Mortgage.sol",
  "compiler": {
    "name": "solc",
    "version": "0.5.12+commit.7709ece9.Emscripten.clang"
  },
  "schemaVersion": "3.0.19",
  "updatedAt": "2019-12-09T20:05:35.248Z",
  "devdoc": {
    "methods": {
      "confirmTransaction(uint256)": {
        "details": "Allows an owner to confirm a transaction.",
        "params": {
          "transactionId": "Transaction ID."
        }
      },
      "constructor": {
        "details": "Contract constructor sets initial owners and required number of confirmations.",
        "params": {
          "_parties": "List of initial owners.",
          "_required": "Number of required confirmations."
        }
      },
      "executeTransaction(uint256)": {
        "details": "Allows anyone to execute a confirmed transaction.",
        "params": {
          "transactionId": "Transaction ID."
        }
      },
      "revokeConfirmation(uint256)": {
        "details": "Allows an owner to revoke a confirmation for a transaction.",
        "params": {
          "transactionId": "Transaction ID."
        }
      },
      "submitTransaction(address,address,uint256,uint256,uint256,uint256)": {
        "details": "Allows an owner to submit and confirm a transaction.",
        "return": "Returns transaction ID."
      }
    }
  },
  "userdoc": {
    "methods": {}
  }
}