{
  "contractName": "MortgageFactory",
  "abi": [
    {
      "anonymous": false,
      "inputs": [
        {
          "indexed": false,
          "internalType": "address",
          "name": "sender",
          "type": "address"
        },
        {
          "indexed": false,
          "internalType": "address",
          "name": "instantiation",
          "type": "address"
        }
      ],
      "name": "ContractInstantiation",
      "type": "event"
    },
    {
      "constant": true,
      "inputs": [
        {
          "internalType": "uint256",
          "name": "",
          "type": "uint256"
        }
      ],
      "name": "deployedMortgage",
      "outputs": [
        {
          "internalType": "contract Mortgage",
          "name": "",
          "type": "address"
        }
      ],
      "payable": false,
      "stateMutability": "view",
      "type": "function"
    },
    {
      "constant": true,
      "inputs": [
        {
          "internalType": "address",
          "name": "creator",
          "type": "address"
        }
      ],
      "name": "getInstantiationCount",
      "outputs": [
        {
          "internalType": "uint256",
          "name": "",
          "type": "uint256"
        }
      ],
      "payable": false,
      "stateMutability": "view",
      "type": "function"
    },
    {
      "constant": true,
      "inputs": [
        {
          "internalType": "address",
          "name": "",
          "type": "address"
        },
        {
          "internalType": "uint256",
          "name": "",
          "type": "uint256"
        }
      ],
      "name": "instantiations",
      "outputs": [
        {
          "internalType": "address",
          "name": "",
          "type": "address"
        }
      ],
      "payable": false,
      "stateMutability": "view",
      "type": "function"
    },
    {
      "constant": true,
      "inputs": [
        {
          "internalType": "address",
          "name": "",
          "type": "address"
        }
      ],
      "name": "isInstantiation",
      "outputs": [
        {
          "internalType": "bool",
          "name": "",
          "type": "bool"
        }
      ],
      "payable": false,
      "stateMutability": "view",
      "type": "function"
    },
    {
      "constant": false,
      "inputs": [
        {
          "internalType": "address[]",
          "name": "_parties",
          "type": "address[]"
        },
        {
          "internalType": "uint256",
          "name": "_required",
          "type": "uint256"
        }
      ],
      "name": "create",
      "outputs": [],
      "payable": false,
      "stateMutability": "nonpayable",
      "type": "function"
    }
  ],
  "bytecode": "0x608060405234801561001057600080fd5b50611641806100206000396000f3fe608060405234801561001057600080fd5b50600436106100575760003560e01c80632f4f33161461005c57806357183c82146100b85780638f8384781461014657806398b814901461019e578063f8f738081461020c575b600080fd5b61009e6004803603602081101561007257600080fd5b81019080803573ffffffffffffffffffffffffffffffffffffffff1690602001909291905050506102ce565b604051808215151515815260200191505060405180910390f35b610104600480360360408110156100ce57600080fd5b81019080803573ffffffffffffffffffffffffffffffffffffffff169060200190929190803590602001909291905050506102ee565b604051808273ffffffffffffffffffffffffffffffffffffffff1673ffffffffffffffffffffffffffffffffffffffff16815260200191505060405180910390f35b6101886004803603602081101561015c57600080fd5b81019080803573ffffffffffffffffffffffffffffffffffffffff169060200190929190505050610339565b6040518082815260200191505060405180910390f35b6101ca600480360360208110156101b457600080fd5b8101908080359060200190929190505050610385565b604051808273ffffffffffffffffffffffffffffffffffffffff1673ffffffffffffffffffffffffffffffffffffffff16815260200191505060405180910390f35b6102cc6004803603604081101561022257600080fd5b810190808035906020019064010000000081111561023f57600080fd5b82018360208201111561025157600080fd5b8035906020019184602083028401116401000000008311171561027357600080fd5b919080806020026020016040519081016040528093929190818152602001838360200280828437600081840152601f19601f820116905080830192505050505050509192919290803590602001909291905050506103c1565b005b60006020528060005260406000206000915054906101000a900460ff1681565b6001602052816000526040600020818154811061030757fe5b906000526020600020016000915091509054906101000a900473ffffffffffffffffffffffffffffffffffffffff1681565b6000600160008373ffffffffffffffffffffffffffffffffffffffff1673ffffffffffffffffffffffffffffffffffffffff168152602001908152602001600020805490509050919050565b6002818154811061039257fe5b906000526020600020016000915054906101000a900473ffffffffffffffffffffffffffffffffffffffff1681565b600082826040516103d1906104ad565b8080602001838152602001828103825284818151815260200191508051906020019060200280838360005b838110156104175780820151818401526020810190506103fc565b505050509050019350505050604051809103906000f08015801561043f573d6000803e3d6000fd5b50905060028190806001815401808255809150509060018203906000526020600020016000909192909190916101000a81548173ffffffffffffffffffffffffffffffffffffffff021916908373ffffffffffffffffffffffffffffffffffffffff16021790555050505050565b611152806104bb8339019056fe6080604052600360025560006004553480156200001b57600080fd5b506040516200115238038062001152833981810160405260408110156200004157600080fd5b81019080805160405193929190846401000000008211156200006257600080fd5b838201915060208201858111156200007957600080fd5b82518660208202830111640100000000821117156200009757600080fd5b8083526020830192505050908051906020019060200280838360005b83811015620000d0578082015181840152602081019050620000b3565b505050509050016040526020018051906020019092919050505081518181811180620000fc5750600081145b80620001085750600082145b156200011357600080fd5b60008090505b84518110156200025757600360008683815181106200013457fe5b602002602001015173ffffffffffffffffffffffffffffffffffffffff1673ffffffffffffffffffffffffffffffffffffffff16815260200190815260200160002060009054906101000a900460ff16158015620001d35750600073ffffffffffffffffffffffffffffffffffffffff16858281518110620001b257fe5b602002602001015173ffffffffffffffffffffffffffffffffffffffff1614155b620001dd57600080fd5b600160036000878481518110620001f057fe5b602002602001015173ffffffffffffffffffffffffffffffffffffffff1673ffffffffffffffffffffffffffffffffffffffff16815260200190815260200160002060006101000a81548160ff021916908315150217905550808060010191505062000119565b5083600190805190602001906200027092919062000282565b50826002819055505050505062000357565b828054828255906000526020600020908101928215620002fe579160200282015b82811115620002fd5782518260006101000a81548173ffffffffffffffffffffffffffffffffffffffff021916908373ffffffffffffffffffffffffffffffffffffffff16021790555091602001919060010190620002a3565b5b5090506200030d919062000311565b5090565b6200035491905b808211156200035057600081816101000a81549073ffffffffffffffffffffffffffffffffffffffff02191690555060010162000318565b5090565b90565b610deb80620003676000396000f3fe60806040526004361061009c5760003560e01c806393cfe44f1161006457806393cfe44f1461034e578063b4f28dd1146103fb578063c01a8c8414610426578063dc8452cd14610479578063ee22610b146104a4578063fc78b2e8146104f75761009c565b806320ea8d86146100f65780633411c81c1461013157806370651a18146101a457806375861f271461021f57806376a6bf52146102fb575b60003411156100f4573373ffffffffffffffffffffffffffffffffffffffff167fe1fffcc4923d04b559f4d29a8bfc6cda04eb5b0d3c460751c2402c5c5cc9109c346040518082815260200191505060405180910390a25b005b34801561010257600080fd5b5061012f6004803603602081101561011957600080fd5b8101908080359060200190929190505050610560565b005b34801561013d57600080fd5b5061018a6004803603604081101561015457600080fd5b8101908080359060200190929190803573ffffffffffffffffffffffffffffffffffffffff1690602001909291905050506106e5565b604051808215151515815260200191505060405180910390f35b3480156101b057600080fd5b506101dd600480360360208110156101c757600080fd5b8101908080359060200190929190505050610714565b604051808273ffffffffffffffffffffffffffffffffffffffff1673ffffffffffffffffffffffffffffffffffffffff16815260200191505060405180910390f35b34801561022b57600080fd5b506102586004803603602081101561024257600080fd5b8101908080359060200190929190505050610750565b604051808973ffffffffffffffffffffffffffffffffffffffff1673ffffffffffffffffffffffffffffffffffffffff1681526020018873ffffffffffffffffffffffffffffffffffffffff1673ffffffffffffffffffffffffffffffffffffffff168152602001878152602001868152602001858152602001848152602001831515151581526020018281526020019850505050505050505060405180910390f35b34801561030757600080fd5b506103346004803603602081101561031e57600080fd5b81019080803590602001909291905050506107e5565b604051808215151515815260200191505060405180910390f35b34801561035a57600080fd5b506103e5600480360360c081101561037157600080fd5b81019080803573ffffffffffffffffffffffffffffffffffffffff169060200190929190803573ffffffffffffffffffffffffffffffffffffffff16906020019092919080359060200190929190803590602001909291908035906020019092919080359060200190929190505050610812565b6040518082815260200191505060405180910390f35b34801561040757600080fd5b506104106108aa565b6040518082815260200191505060405180910390f35b34801561043257600080fd5b5061045f6004803603602081101561044957600080fd5b81019080803590602001909291905050506108b0565b604051808215151515815260200191505060405180910390f35b34801561048557600080fd5b5061048e610a38565b6040518082815260200191505060405180910390f35b3480156104b057600080fd5b506104dd600480360360208110156104c757600080fd5b8101908080359060200190929190505050610a3e565b604051808215151515815260200191505060405180910390f35b34801561050357600080fd5b506105466004803603602081101561051a57600080fd5b81019080803573ffffffffffffffffffffffffffffffffffffffff169060200190929190505050610afd565b604051808215151515815260200191505060405180910390f35b600115156006600083815260200190815260200160002060003373ffffffffffffffffffffffffffffffffffffffff1673ffffffffffffffffffffffffffffffffffffffff16815260200190815260200160002060009054906101000a900460ff161515146105ce57600080fd5b60011515600360003373ffffffffffffffffffffffffffffffffffffffff1673ffffffffffffffffffffffffffffffffffffffff16815260200190815260200160002060009054906101000a900460ff1615151461062b57600080fd5b60006006600083815260200190815260200160002060003373ffffffffffffffffffffffffffffffffffffffff1673ffffffffffffffffffffffffffffffffffffffff16815260200190815260200160002060006101000a81548160ff0219169083151502179055503373ffffffffffffffffffffffffffffffffffffffff167f01f63c1b9d3957c18de0c44c6275215a4ad8986480fd414a049af3c3643ec9b3826040518082815260200191505060405180910390a250565b60066020528160005260406000206020528060005260406000206000915091509054906101000a900460ff1681565b6001818154811061072157fe5b906000526020600020016000915054906101000a900473ffffffffffffffffffffffffffffffffffffffff1681565b60056020528060005260406000206000915090508060000160009054906101000a900473ffffffffffffffffffffffffffffffffffffffff16908060010160009054906101000a900473ffffffffffffffffffffffffffffffffffffffff16908060020154908060030154908060040154908060050154908060060160009054906101000a900460ff16908060070154905088565b60006005600083815260200190815260200160002060060160009054906101000a900460ff169050919050565b600061081c610d43565b6040518061010001604052808973ffffffffffffffffffffffffffffffffffffffff1681526020018873ffffffffffffffffffffffffffffffffffffffff16815260200187815260200186815260200185815260200184815260200160001515815260200142815250905061089081610b1d565b915061089b826108b0565b50819150509695505050505050565b60045481565b60008015156006600084815260200190815260200160002060003373ffffffffffffffffffffffffffffffffffffffff1673ffffffffffffffffffffffffffffffffffffffff16815260200190815260200160002060009054906101000a900460ff1615151461091f57600080fd5b60011515600360003373ffffffffffffffffffffffffffffffffffffffff1673ffffffffffffffffffffffffffffffffffffffff16815260200190815260200160002060009054906101000a900460ff1615151461097c57600080fd5b60016006600084815260200190815260200160002060003373ffffffffffffffffffffffffffffffffffffffff1673ffffffffffffffffffffffffffffffffffffffff16815260200190815260200160002060006101000a81548160ff021916908315150217905550813373ffffffffffffffffffffffffffffffffffffffff167f4a504a94899432a9846e1aa406dceb1bcfd538bb839071d49d1e5e23f5be30ef60405160405180910390a3610a3282610a3e565b50919050565b60025481565b6000610a4982610c5e565b15610aca5760016005600084815260200190815260200160002060060160006101000a81548160ff021916908315150217905550426005600084815260200190815260200160002060070181905550817f33e13ecb54c3076d8e8bb8c2881800a4d972b792045ffae98fdf46df365fed7560405160405180910390a2610af8565b817f526441bb6c1aba3c9a4a6ca1d6545da9c2333c8c48343ef398eb858d72b7923660405160405180910390a25b919050565b60036020528060005260406000206000915054906101000a900460ff1681565b60006004549050816005600083815260200190815260200160002060008201518160000160006101000a81548173ffffffffffffffffffffffffffffffffffffffff021916908373ffffffffffffffffffffffffffffffffffffffff16021790555060208201518160010160006101000a81548173ffffffffffffffffffffffffffffffffffffffff021916908373ffffffffffffffffffffffffffffffffffffffff16021790555060408201518160020155606082015181600301556080820151816004015560a0820151816005015560c08201518160060160006101000a81548160ff02191690831515021790555060e082015181600701559050506001600460008282540192505081905550807fc0ba8fe4b176c1714197d43b9cc6bcf797a4a7461c5fe8d0ef6e184ae7601e5160405160405180910390a2919050565b6000806000905060008090505b600180549050811015610d3b5760066000858152602001908152602001600020600060018381548110610c9a57fe5b9060005260206000200160009054906101000a900473ffffffffffffffffffffffffffffffffffffffff1673ffffffffffffffffffffffffffffffffffffffff1673ffffffffffffffffffffffffffffffffffffffff16815260200190815260200160002060009054906101000a900460ff1615610d19576001820191505b600254821415610d2e57600192505050610d3e565b8080600101915050610c6b565b50505b919050565b604051806101000160405280600073ffffffffffffffffffffffffffffffffffffffff168152602001600073ffffffffffffffffffffffffffffffffffffffff1681526020016000815260200160008152602001600081526020016000815260200160001515815260200160008152509056fea265627a7a723158201630267559c6945c46d84b2e3d73fb4978a5e1033dc5920a012cdec30cce09e564736f6c634300050c0032a265627a7a72315820f5f7c0cc3499c2aca09dde715e5b453dd543a550c62f4a31beddbbe16eaf00e064736f6c634300050c0032",
  "source": "pragma solidity ^0.5.0;\nimport \"./Factory.sol\";\nimport \"./Mortgage.sol\";\n\n\n///@title Mortgage contract factory - Allows creation of mortgage contracts\n///@author Alex-Kevin Loembe - <loembe.ak@gmail.com>\ncontract MortgageFactory is Factory{\n    Mortgage[] public deployedMortgage;\n\n    /*\n     * Public functions\n     */\n     ///@dev Allows verified creation of mortgage contracts.\n     ///@param _parties list of the parties of this contract.\n     ///@param _required number of required confirmations.\n     ///@return returns the contracts address\n     function create(address[] memory _parties, uint _required) public{\n        Mortgage mortgage = new Mortgage(_parties,_required);\n        deployedMortgage.push(mortgage);\n        //register(mortgage);         \n     }  \n\n}",
  "sourcePath": "/home/alexlo/NIST/solidity-project/landreg/contracts/MortgageFactory.sol",
  "compiler": {
    "name": "solc",
    "version": "0.5.12+commit.7709ece9.Emscripten.clang"
  },
  "schemaVersion": "3.0.19",
  "updatedAt": "2019-12-10T15:28:54.480Z",
  "devdoc": {
    "author": "Alex-Kevin Loembe - <loembe.ak@gmail.com>",
    "methods": {
      "create(address[],uint256)": {
        "details": "Allows verified creation of mortgage contracts.",
        "params": {
          "_parties": "list of the parties of this contract.",
          "_required": "number of required confirmations."
        },
        "return": "returns the contracts address"
      },
      "getInstantiationCount(address)": {
        "details": "Returns number of instantiations by creator.",
        "params": {
          "creator": "Contract creator."
        },
        "return": "Returns number of instantiations by creator."
      }
    },
    "title": "Mortgage contract factory - Allows creation of mortgage contracts"
  },
  "userdoc": {
    "methods": {}
  }
}