{
  "contractName": "MortgageFactory",
  "abi": [
    {
      "anonymous": false,
      "inputs": [
        {
          "indexed": false,
          "internalType": "address",
          "name": "sender",
          "type": "address"
        },
        {
          "indexed": false,
          "internalType": "address",
          "name": "instantiation",
          "type": "address"
        }
      ],
      "name": "ContractInstantiation",
      "type": "event"
    },
    {
      "constant": true,
      "inputs": [
        {
          "internalType": "uint256",
          "name": "",
          "type": "uint256"
        }
      ],
      "name": "deployedMortgage",
      "outputs": [
        {
          "internalType": "contract Mortgage",
          "name": "",
          "type": "address"
        }
      ],
      "payable": false,
      "stateMutability": "view",
      "type": "function"
    },
    {
      "constant": true,
      "inputs": [
        {
          "internalType": "address",
          "name": "creator",
          "type": "address"
        }
      ],
      "name": "getInstantiationCount",
      "outputs": [
        {
          "internalType": "uint256",
          "name": "",
          "type": "uint256"
        }
      ],
      "payable": false,
      "stateMutability": "view",
      "type": "function"
    },
    {
      "constant": true,
      "inputs": [
        {
          "internalType": "address",
          "name": "",
          "type": "address"
        },
        {
          "internalType": "uint256",
          "name": "",
          "type": "uint256"
        }
      ],
      "name": "instantiations",
      "outputs": [
        {
          "internalType": "address",
          "name": "",
          "type": "address"
        }
      ],
      "payable": false,
      "stateMutability": "view",
      "type": "function"
    },
    {
      "constant": true,
      "inputs": [
        {
          "internalType": "address",
          "name": "",
          "type": "address"
        }
      ],
      "name": "isInstantiation",
      "outputs": [
        {
          "internalType": "bool",
          "name": "",
          "type": "bool"
        }
      ],
      "payable": false,
      "stateMutability": "view",
      "type": "function"
    },
    {
      "constant": false,
      "inputs": [
        {
          "internalType": "address[]",
          "name": "_parties",
          "type": "address[]"
        },
        {
          "internalType": "uint256",
          "name": "_required",
          "type": "uint256"
        }
      ],
      "name": "create",
      "outputs": [],
      "payable": false,
      "stateMutability": "nonpayable",
      "type": "function"
    }
  ],
  "bytecode": "0x608060405234801561001057600080fd5b5061129d806100206000396000f3fe608060405234801561001057600080fd5b50600436106100575760003560e01c80632f4f33161461005c57806357183c82146100b85780638f8384781461014657806398b814901461019e578063f8f738081461020c575b600080fd5b61009e6004803603602081101561007257600080fd5b81019080803573ffffffffffffffffffffffffffffffffffffffff1690602001909291905050506102ce565b604051808215151515815260200191505060405180910390f35b610104600480360360408110156100ce57600080fd5b81019080803573ffffffffffffffffffffffffffffffffffffffff169060200190929190803590602001909291905050506102ee565b604051808273ffffffffffffffffffffffffffffffffffffffff1673ffffffffffffffffffffffffffffffffffffffff16815260200191505060405180910390f35b6101886004803603602081101561015c57600080fd5b81019080803573ffffffffffffffffffffffffffffffffffffffff169060200190929190505050610339565b6040518082815260200191505060405180910390f35b6101ca600480360360208110156101b457600080fd5b8101908080359060200190929190505050610385565b604051808273ffffffffffffffffffffffffffffffffffffffff1673ffffffffffffffffffffffffffffffffffffffff16815260200191505060405180910390f35b6102cc6004803603604081101561022257600080fd5b810190808035906020019064010000000081111561023f57600080fd5b82018360208201111561025157600080fd5b8035906020019184602083028401116401000000008311171561027357600080fd5b919080806020026020016040519081016040528093929190818152602001838360200280828437600081840152601f19601f820116905080830192505050505050509192919290803590602001909291905050506103c1565b005b60006020528060005260406000206000915054906101000a900460ff1681565b6001602052816000526040600020818154811061030757fe5b906000526020600020016000915091509054906101000a900473ffffffffffffffffffffffffffffffffffffffff1681565b6000600160008373ffffffffffffffffffffffffffffffffffffffff1673ffffffffffffffffffffffffffffffffffffffff168152602001908152602001600020805490509050919050565b6002818154811061039257fe5b906000526020600020016000915054906101000a900473ffffffffffffffffffffffffffffffffffffffff1681565b600082826040516103d1906104ad565b8080602001838152602001828103825284818151815260200191508051906020019060200280838360005b838110156104175780820151818401526020810190506103fc565b505050509050019350505050604051809103906000f08015801561043f573d6000803e3d6000fd5b50905060028190806001815401808255809150509060018203906000526020600020016000909192909190916101000a81548173ffffffffffffffffffffffffffffffffffffffff021916908373ffffffffffffffffffffffffffffffffffffffff16021790555050505050565b610dae806104bb8339019056fe608060405260036002553480156200001657600080fd5b5060405162000dae38038062000dae833981810160405260408110156200003c57600080fd5b81019080805160405193929190846401000000008211156200005d57600080fd5b838201915060208201858111156200007457600080fd5b82518660208202830111640100000000821117156200009257600080fd5b8083526020830192505050908051906020019060200280838360005b83811015620000cb578082015181840152602081019050620000ae565b505050509050016040526020018051906020019092919050505081518181811180620000f75750600081145b80620001035750600082145b156200010e57600080fd5b60008090505b84518110156200025257600360008683815181106200012f57fe5b602002602001015173ffffffffffffffffffffffffffffffffffffffff1673ffffffffffffffffffffffffffffffffffffffff16815260200190815260200160002060009054906101000a900460ff16158015620001ce5750600073ffffffffffffffffffffffffffffffffffffffff16858281518110620001ad57fe5b602002602001015173ffffffffffffffffffffffffffffffffffffffff1614155b620001d857600080fd5b600160036000878481518110620001eb57fe5b602002602001015173ffffffffffffffffffffffffffffffffffffffff1673ffffffffffffffffffffffffffffffffffffffff16815260200190815260200160002060006101000a81548160ff021916908315150217905550808060010191505062000114565b5083600190805190602001906200026b9291906200027d565b50826002819055505050505062000352565b828054828255906000526020600020908101928215620002f9579160200282015b82811115620002f85782518260006101000a81548173ffffffffffffffffffffffffffffffffffffffff021916908373ffffffffffffffffffffffffffffffffffffffff160217905550916020019190600101906200029e565b5b5090506200030891906200030c565b5090565b6200034f91905b808211156200034b57600081816101000a81549073ffffffffffffffffffffffffffffffffffffffff02191690555060010162000313565b5090565b90565b610a4c80620003626000396000f3fe6080604052600436106100915760003560e01c8063b4f28dd111610059578063b4f28dd11461038b578063c01a8c84146103b6578063dc8452cd146103f1578063ee22610b1461041c578063fc78b2e81461046f57610091565b806320ea8d86146100eb5780633411c81c1461012657806370651a181461019957806375861f271461021457806393cfe44f146102de575b60003411156100e9573373ffffffffffffffffffffffffffffffffffffffff167fe1fffcc4923d04b559f4d29a8bfc6cda04eb5b0d3c460751c2402c5c5cc9109c346040518082815260200191505060405180910390a25b005b3480156100f757600080fd5b506101246004803603602081101561010e57600080fd5b81019080803590602001909291905050506104d8565b005b34801561013257600080fd5b5061017f6004803603604081101561014957600080fd5b8101908080359060200190929190803573ffffffffffffffffffffffffffffffffffffffff1690602001909291905050506104db565b604051808215151515815260200191505060405180910390f35b3480156101a557600080fd5b506101d2600480360360208110156101bc57600080fd5b810190808035906020019092919050505061050a565b604051808273ffffffffffffffffffffffffffffffffffffffff1673ffffffffffffffffffffffffffffffffffffffff16815260200191505060405180910390f35b34801561022057600080fd5b5061024d6004803603602081101561023757600080fd5b8101908080359060200190929190505050610546565b604051808773ffffffffffffffffffffffffffffffffffffffff1673ffffffffffffffffffffffffffffffffffffffff1681526020018673ffffffffffffffffffffffffffffffffffffffff1673ffffffffffffffffffffffffffffffffffffffff168152602001858152602001848152602001838152602001828152602001965050505050505060405180910390f35b3480156102ea57600080fd5b50610375600480360360c081101561030157600080fd5b81019080803573ffffffffffffffffffffffffffffffffffffffff169060200190929190803573ffffffffffffffffffffffffffffffffffffffff169060200190929190803590602001909291908035906020019092919080359060200190929190803590602001909291905050506105c2565b6040518082815260200191505060405180910390f35b34801561039757600080fd5b506103a0610646565b6040518082815260200191505060405180910390f35b3480156103c257600080fd5b506103ef600480360360208110156103d957600080fd5b810190808035906020019092919050505061064c565b005b3480156103fd57600080fd5b50610406610774565b6040518082815260200191505060405180910390f35b34801561042857600080fd5b506104556004803603602081101561043f57600080fd5b810190808035906020019092919050505061077a565b604051808215151515815260200191505060405180910390f35b34801561047b57600080fd5b506104be6004803603602081101561049257600080fd5b81019080803573ffffffffffffffffffffffffffffffffffffffff169060200190929190505050610799565b604051808215151515815260200191505060405180910390f35b50565b60066020528160005260406000206020528060005260406000206000915091509054906101000a900460ff1681565b6001818154811061051757fe5b906000526020600020016000915054906101000a900473ffffffffffffffffffffffffffffffffffffffff1681565b60056020528060005260406000206000915090508060000160009054906101000a900473ffffffffffffffffffffffffffffffffffffffff16908060010160009054906101000a900473ffffffffffffffffffffffffffffffffffffffff16908060020154908060030154908060040154908060050154905086565b60006105cc6109b5565b6040518060c001604052808973ffffffffffffffffffffffffffffffffffffffff1681526020018873ffffffffffffffffffffffffffffffffffffffff168152602001878152602001868152602001858152602001848152509050610630816107b9565b915061063b8261064c565b509695505050505050565b60045481565b600015156006600083815260200190815260200160002060003373ffffffffffffffffffffffffffffffffffffffff1673ffffffffffffffffffffffffffffffffffffffff16815260200190815260200160002060009054906101000a900460ff161515146106ba57600080fd5b60016006600083815260200190815260200160002060003373ffffffffffffffffffffffffffffffffffffffff1673ffffffffffffffffffffffffffffffffffffffff16815260200190815260200160002060006101000a81548160ff021916908315150217905550803373ffffffffffffffffffffffffffffffffffffffff167f4a504a94899432a9846e1aa406dceb1bcfd538bb839071d49d1e5e23f5be30ef60405160405180910390a36107708161077a565b5050565b60025481565b6000610785826108d0565b156107935760019050610794565b5b919050565b60036020528060005260406000206000915054906101000a900460ff1681565b60006004549050816005600083815260200190815260200160002060008201518160000160006101000a81548173ffffffffffffffffffffffffffffffffffffffff021916908373ffffffffffffffffffffffffffffffffffffffff16021790555060208201518160010160006101000a81548173ffffffffffffffffffffffffffffffffffffffff021916908373ffffffffffffffffffffffffffffffffffffffff16021790555060408201518160020155606082015181600301556080820151816004015560a082015181600501559050506001600460008282540192505081905550807fc0ba8fe4b176c1714197d43b9cc6bcf797a4a7461c5fe8d0ef6e184ae7601e5160405160405180910390a2919050565b6000806000905060008090505b6001805490508110156109ad576006600085815260200190815260200160002060006001838154811061090c57fe5b9060005260206000200160009054906101000a900473ffffffffffffffffffffffffffffffffffffffff1673ffffffffffffffffffffffffffffffffffffffff1673ffffffffffffffffffffffffffffffffffffffff16815260200190815260200160002060009054906101000a900460ff161561098b576001820191505b6002548214156109a0576001925050506109b0565b80806001019150506108dd565b50505b919050565b6040518060c00160405280600073ffffffffffffffffffffffffffffffffffffffff168152602001600073ffffffffffffffffffffffffffffffffffffffff16815260200160008152602001600081526020016000815260200160008152509056fea265627a7a723158201ea5abb20daf74bc0736bb428e282c3c4b65d306404b3867f1d3c9aa97cd419564736f6c634300050c0032a265627a7a72315820b5e8d83d0ddec84b5188e3cfd5c06dc5676f87f08d5cb0689469236ed0053f4664736f6c634300050c0032",
  "source": "pragma solidity ^0.5.0;\nimport \"./Factory.sol\";\nimport \"./Mortgage.sol\";\n\n\n///@title Mortgage contract factory - Allows creation of mortgage contracts\n///@author Alex-Kevin Loembe - <loembe.ak@gmail.com>\ncontract MortgageFactory is Factory{\n    Mortgage[] public deployedMortgage;\n\n    /*\n     * Public functions\n     */\n     ///@dev Allows verified creation of mortgage contracts.\n     ///@param _parties list of the parties of this contract.\n     ///@param _required number of required confirmations.\n     ///@return returns the contracts address\n     function create(address[] memory _parties, uint _required) public{\n        Mortgage mortgage = new Mortgage(_parties,_required);\n        deployedMortgage.push(mortgage);\n        //register(mortgage);         \n     }  \n\n}",
  "sourcePath": "/home/alexlo/NIST/solidity-project/landreg/contracts/MortgageFactory.sol",
  "compiler": {
    "name": "solc",
    "version": "0.5.12+commit.7709ece9.Emscripten.clang"
  },
  "schemaVersion": "3.0.19",
  "updatedAt": "2019-12-06T16:54:16.075Z",
  "devdoc": {
    "author": "Alex-Kevin Loembe - <loembe.ak@gmail.com>",
    "methods": {
      "create(address[],uint256)": {
        "details": "Allows verified creation of mortgage contracts.",
        "params": {
          "_parties": "list of the parties of this contract.",
          "_required": "number of required confirmations."
        },
        "return": "returns the contracts address"
      },
      "getInstantiationCount(address)": {
        "details": "Returns number of instantiations by creator.",
        "params": {
          "creator": "Contract creator."
        },
        "return": "Returns number of instantiations by creator."
      }
    },
    "title": "Mortgage contract factory - Allows creation of mortgage contracts"
  },
  "userdoc": {
    "methods": {}
  }
}