{
  "contractName": "Registry",
  "abi": [
    {
      "inputs": [],
      "payable": false,
      "stateMutability": "nonpayable",
      "type": "constructor"
    },
    {
      "constant": true,
      "inputs": [],
      "name": "owner",
      "outputs": [
        {
          "internalType": "address payable",
          "name": "",
          "type": "address"
        }
      ],
      "payable": false,
      "stateMutability": "view",
      "type": "function"
    },
    {
      "constant": true,
      "inputs": [
        {
          "internalType": "uint256",
          "name": "",
          "type": "uint256"
        }
      ],
      "name": "properties",
      "outputs": [
        {
          "internalType": "address",
          "name": "owner",
          "type": "address"
        },
        {
          "internalType": "uint256",
          "name": "listPointer",
          "type": "uint256"
        }
      ],
      "payable": false,
      "stateMutability": "view",
      "type": "function"
    },
    {
      "constant": true,
      "inputs": [
        {
          "internalType": "uint256",
          "name": "",
          "type": "uint256"
        }
      ],
      "name": "propertyList",
      "outputs": [
        {
          "internalType": "uint256",
          "name": "",
          "type": "uint256"
        }
      ],
      "payable": false,
      "stateMutability": "view",
      "type": "function"
    },
    {
      "constant": true,
      "inputs": [
        {
          "internalType": "uint256",
          "name": "pin",
          "type": "uint256"
        }
      ],
      "name": "isProperty",
      "outputs": [
        {
          "internalType": "address",
          "name": "",
          "type": "address"
        }
      ],
      "payable": false,
      "stateMutability": "view",
      "type": "function"
    },
    {
      "constant": true,
      "inputs": [],
      "name": "getPropertyCount",
      "outputs": [
        {
          "internalType": "uint256",
          "name": "propertyCount",
          "type": "uint256"
        }
      ],
      "payable": false,
      "stateMutability": "view",
      "type": "function"
    },
    {
      "constant": false,
      "inputs": [
        {
          "internalType": "address",
          "name": "ownerAddress",
          "type": "address"
        },
        {
          "internalType": "uint256",
          "name": "pin",
          "type": "uint256"
        }
      ],
      "name": "newProperty",
      "outputs": [
        {
          "internalType": "bool",
          "name": "success",
          "type": "bool"
        }
      ],
      "payable": false,
      "stateMutability": "nonpayable",
      "type": "function"
    },
    {
      "constant": false,
      "inputs": [
        {
          "internalType": "address",
          "name": "ownerAddress",
          "type": "address"
        },
        {
          "internalType": "uint256",
          "name": "pin",
          "type": "uint256"
        }
      ],
      "name": "updateProperty",
      "outputs": [
        {
          "internalType": "bool",
          "name": "success",
          "type": "bool"
        }
      ],
      "payable": false,
      "stateMutability": "nonpayable",
      "type": "function"
    },
    {
      "constant": false,
      "inputs": [
        {
          "internalType": "uint256",
          "name": "pin",
          "type": "uint256"
        }
      ],
      "name": "deleteProperty",
      "outputs": [
        {
          "internalType": "bool",
          "name": "success",
          "type": "bool"
        }
      ],
      "payable": false,
      "stateMutability": "nonpayable",
      "type": "function"
    }
  ],
  "bytecode": "0x608060405234801561001057600080fd5b50336000806101000a81548173ffffffffffffffffffffffffffffffffffffffff021916908373ffffffffffffffffffffffffffffffffffffffff1602179055506107e6806100606000396000f3fe608060405234801561001057600080fd5b50600436106100885760003560e01c806351d2a3b21161005b57806351d2a3b21461020d5780637326b9011461024f5780638da5cb5b1461026d578063f7b10808146102b757610088565b8063162186b51461008d578063170140f1146100fb5780633d319c24146101415780634673917c146101a7575b600080fd5b6100b9600480360360208110156100a357600080fd5b810190808035906020019092919050505061032c565b604051808273ffffffffffffffffffffffffffffffffffffffff1673ffffffffffffffffffffffffffffffffffffffff16815260200191505060405180910390f35b6101276004803603602081101561011157600080fd5b81019080803590602001909291905050506103ab565b604051808215151515815260200191505060405180910390f35b61018d6004803603604081101561015757600080fd5b81019080803573ffffffffffffffffffffffffffffffffffffffff169060200190929190803590602001909291905050506104e9565b604051808215151515815260200191505060405180910390f35b6101f3600480360360408110156101bd57600080fd5b81019080803573ffffffffffffffffffffffffffffffffffffffff16906020019092919080359060200190929190505050610592565b604051808215151515815260200191505060405180910390f35b6102396004803603602081101561022357600080fd5b8101908080359060200190929190505050610698565b6040518082815260200191505060405180910390f35b6102576106b9565b6040518082815260200191505060405180910390f35b6102756106c6565b604051808273ffffffffffffffffffffffffffffffffffffffff1673ffffffffffffffffffffffffffffffffffffffff16815260200191505060405180910390f35b6102e3600480360360208110156102cd57600080fd5b81019080803590602001909291905050506106eb565b604051808373ffffffffffffffffffffffffffffffffffffffff1673ffffffffffffffffffffffffffffffffffffffff1681526020018281526020019250505060405180910390f35b600081600260016000858152602001908152602001600020600101548154811061035257fe5b906000526020600020015414156103a1576001600083815260200190815260200160002060000160009054906101000a900473ffffffffffffffffffffffffffffffffffffffff1690506103a6565b600090505b919050565b60008060009054906101000a900473ffffffffffffffffffffffffffffffffffffffff1673ffffffffffffffffffffffffffffffffffffffff163373ffffffffffffffffffffffffffffffffffffffff1614610452576040517f08c379a00000000000000000000000000000000000000000000000000000000081526004018080602001828103825260318152602001806107816031913960400191505060405180910390fd5b600060016000848152602001908152602001600020600101549050600060026001600280549050038154811061048457fe5b90600052602060002001549050806002838154811061049f57fe5b906000526020600020018190555081600160008381526020019081526020016000206001018190555060028054809190600190036104dd919061072f565b50600192505050919050565b6000826001600084815260200190815260200160002060000160006101000a81548173ffffffffffffffffffffffffffffffffffffffff021916908373ffffffffffffffffffffffffffffffffffffffff1602179055506001600283908060018154018082558091505090600182039060005260206000200160009091929091909150550360016000848152602001908152602001600020600101819055506001905092915050565b60008060009054906101000a900473ffffffffffffffffffffffffffffffffffffffff1673ffffffffffffffffffffffffffffffffffffffff163373ffffffffffffffffffffffffffffffffffffffff1614610639576040517f08c379a00000000000000000000000000000000000000000000000000000000081526004018080602001828103825260318152602001806107816031913960400191505060405180910390fd5b826001600084815260200190815260200160002060000160006101000a81548173ffffffffffffffffffffffffffffffffffffffff021916908373ffffffffffffffffffffffffffffffffffffffff1602179055506001905092915050565b600281815481106106a557fe5b906000526020600020016000915090505481565b6000600280549050905090565b6000809054906101000a900473ffffffffffffffffffffffffffffffffffffffff1681565b60016020528060005260406000206000915090508060000160009054906101000a900473ffffffffffffffffffffffffffffffffffffffff16908060010154905082565b81548183558181111561075657818360005260206000209182019101610755919061075b565b5b505050565b61077d91905b80821115610779576000816000905550600101610761565b5090565b9056fe4f6e6c79206f776e6572206f662074686520636f6e74726163742063616e2063616c6c20746869732066756e6374696f6ea265627a7a7231582039573a1f71081d428611e91b5debb7ae1456776892df204e8205ed300e20777964736f6c634300050c0032",
  "source": "pragma solidity ^0.5.0;\n\n/* The Registry contract keeps track of the land registry of the city. Every house should be registered in this contract */\n\ncontract Registry {\n\naddress payable public owner;\n/* Data model that allows me to have a stucts with delete and index */\n  struct Property {\n    address owner;\n    uint listPointer;\n  }\n\n  mapping(uint => Property) public properties;\n  uint[] public propertyList;\n\n  modifier isOwner(){ require(msg.sender == owner,\"Only owner of the contract can call this function\");_;}\n\nconstructor() public{\n  owner=msg.sender;\n}\n\n/* Function that check if a PIN (property identification number) exists */\n  function isProperty(uint pin) public view returns(address) {\n    //require(propertyList.length>0,\"There is no property yet\");\n    if(propertyList[properties[pin].listPointer] == pin) {\n         return properties[pin].owner;\n     }else{\n         return address(0);\n     } \n  }\n\n    /* Check the number of property on the blockchain */\n  function getPropertyCount() public view returns(uint propertyCount) {\n    return propertyList.length;\n  }\n  \n/*function that create a new property on the blockchain */\n  function newProperty(address ownerAddress, uint pin) public returns(bool success) {\n    //require(isProperty(pin)==address(0),\"This PIN already exist\");\n    properties[pin].owner = ownerAddress;\n    properties[pin].listPointer = propertyList.push(pin) - 1;\n    return true;\n  }\n/* Function that allows to change the owner of a property */\n  function updateProperty(address ownerAddress, uint pin) public isOwner() returns(bool success) {\n    //require(isProperty(pin)!=address(0),\"This PIN doens't exist\");\n    properties[pin].owner = ownerAddress;\n    return true;\n  }\n/*function that allow to delete a property on the blockchain */\n  function deleteProperty(uint pin) public isOwner() returns(bool success) {\n    //require(isProperty(pin)!=address(0),\"This PIN doens't exist\");\n    uint rowToDelete = properties[pin].listPointer;\n    uint keyToMove   = propertyList[propertyList.length-1];\n    propertyList[rowToDelete] = keyToMove;\n    properties[keyToMove].listPointer = rowToDelete;\n    propertyList.length--;\n    return true;\n  }\n\n}\n",
  "sourcePath": "/home/alexlo/NIST/solidity-project/landreg/contracts/Registry.sol",
  "compiler": {
    "name": "solc",
    "version": "0.5.12+commit.7709ece9.Emscripten.clang"
  },
  "schemaVersion": "3.0.19",
  "updatedAt": "2019-12-02T19:36:38.967Z",
  "devdoc": {
    "methods": {}
  },
  "userdoc": {
    "methods": {}
  }
}